:020000040800F2
:10000000D8280020010100089B1600088B15000865
:100010009916000803020008B12000080000000043
:10002000000000000000000000000000A91C000803
:100030009103000800000000591B0008611E000821
:100040001B0100081B0100081B0100081B01000820
:100050001B0100081B0100081B0100081B01000810
:100060001B0100081B0100081B0100081B01000800
:100070001B0100081B0100081B0100081B010008F0
:100080001B0100081B0100081B0100081B010008E0
:10009000A5200008050200081B0100081B0100083C
:1000A0001B0100081B0100081B0100081B010008C0
:1000B0001B0100081B010008CD1E00081B010008E1
:1000C0001B0100081B0100081B0100081B010008A0
:1000D0001B0100081B0100081B0100081B01000890
:1000E0001B0100081B0100081B010008DFF80CD0F1
:1000F00000F04AF80048004715280008D8280020DA
:100100000648804706480047FEE7FEE7FEE7FEE7B1
:10011000FEE7FEE7FEE7FEE7FEE7FEE7CB1E000890
:10012000ED00000840EA01039B0703D009E008C97D
:10013000121F08C0042AFAD203E011F8013B00F8AC
:10014000013B521EF9D27047D2B201E000F8012BF8
:10015000491EFBD270470022F6E710B513460A4647
:1001600004461946FFF7F0FF204610BD30B504469F
:100170000020034600E05B1C934203D2E05CCD5CB0
:10018000401BF8D030BD0000064C074D06E0E0688B
:1001900040F0010394E8070098471034AC42F6D3CE
:1001A000FFF7A8FFA8440008C844000870B58C18E1
:1001B00010F8015B15F0070301D110F8013B2A117B
:1001C00006D110F8012B03E010F8016B01F8016B68
:1001D0005B1EF9D12B0705D40023521E0DD401F864
:1001E000013BFAE710F8013BCB1A921C03E013F82D
:1001F000015B01F8015B521EF9D5A142D8D3002062
:1002000070BDFEE7224800F059BA00BFB0B58AB011
:1002100000206C4601251421CDE9050020460795F4
:10022000FFF799FF0E202146CDE90850184800F04D
:100230005DF900B1FEE7164800F029FC00B1FEE7C9
:100240001348022100F0F6F800B1FEE70AB0B0BD95
:10025000FFF7DCBF10B588B00C46002101900C48B8
:10026000CDE90432039101A907AB224600F0F5F86D
:1002700008B101200AE0064C204600F00AFA0328E3
:1002800003D0012000F030FCF6E7002008B010BDDC
:100290009C1700200A460E49884218BF7047D06854
:1002A00021F8040F5089C870107A8870D2E90002D2
:1002B000C1E90102074802F0F9B800BF0448054946
:1002C0000122016102600448C1F8342301F0B8BD85
:1002D0005C140020100000208D15000810B5D0E936
:1002E0007C234FF6FF74D0F800C223F8114002EBD4
:1002F000810101238978421882F80432BDE8104058
:1003000060472DE9F0470A9CDDE908974FF0FF3C74
:100310004FF0FF3E4FF0FF08002C08BF4FF0010EDA
:10032000002B08BF4FF0010CC4B27CB3BD1A0E788D
:100330006DB26B4226FA03F3002DC8BF06FA05F32F
:10034000FEB2002DC6F1080728FA07FAD8BFC2F19D
:100350000807FDB2A54288BF25462A44AF1999F87F
:10036000006008FA07F444EA0A04A3433440234334
:1003700089F8003017F0F8031CBFF1440027D3B20E
:10038000072B84BF61440022401BCDE7BDE8F08706
:1003900070470000411C4FF6FF710FD010B5084A9E
:1003A00083B214889C4204BF431E1380054A00EBAD
:1003B0004000002302F83030BDE8104008B270471A
:1003C0000800002010180020EFF3108072B6FEE73E
:1003D000F8B50446D0F88C02008820B30025012629
:1003E000802D26D0671997F804020F2819D02068AD
:1003F0000078854215D097F8940258B9D4F888222D
:100400002AB1E9B22046904797F8940200E0002014
:1004100087F804620138E9B287F89402204602F0B6
:1004200017FA0135DCE7B4F98402FFF7B3FFA4F84B
:100430008402F8BD90F82020013A012A04D800680F
:1004400000F11402002004E000F1240201204FF426
:100450008021136819431160704770B590F82060CF
:100460000468013EA568012E0CD815F0E05F0CD0A1
:10047000C5F30165032D0ED100F1240101204FF4D5
:1004800000022FE001F050FA2CE000F124010120DD
:100490004FF4001226E00120A8401860886818B1C7
:1004A0004B6840EAC30301E00868430504EB05100C
:1004B000D1E903452343C0F88031C0F88451097D58
:1004C000012905D100F5C2710B6843F480730B60FC
:1004D0005168C0F88C1111680122C0F8881100F52C
:1004E000C07100200B681A430A6070BDF0B5026845
:1004F00090F82030013B012B24D8D2F800020123D0
:1005000040F00100C2F800024C69CD6904F01F0000
:1005100003FA00F0D2F81C328343C2F81C32C34302
:10052000012D15D05DBBD2F80C521D40C2F80C5203
:1005300002EBC405CE688F8847EA0646C5F84062DC
:100540000D4614E0416A41F4802141620120F0BD72
:10055000D2F80C520543C2F80C5202EBC4050E68E7
:100560008F8847EA0646C5F8406201F10C058E689F
:100570002D8802EBC40445EA0645C4F84452D2F87B
:1005800004428F690E69096A44EA0005002F08BF1A
:1005900004EA0305C2F80452002ED2F8144244EAD9
:1005A000000508BF04EA03050129C2F8145204D16A
:1005B000D2F81C120843C2F81C02D2F8000220F044
:1005C0000100C2F800020020F0BD704770B590F83D
:1005D0002040013C012C03D8046821B1256903E0C7
:1005E00001F0A2F951E0E568AD0744D004EB011435
:1005F000D4F8B05115F00405956004F5D875D4F819
:10060000B06119BFF6085660760D16602D6805F0CA
:100610000205D560D4F8B45105F00F051561D4F882
:10062000B451C5F307259561D4F8B4512D0C55612B
:10063000D4F8B8211A7001F059F8120A5A7001F072
:1006400055F8120C9A7001F051F8120EDA7001F0A0
:1006500025F81A7101F022F8120A5A7101F01EF8F9
:10066000120C9A7101F01AF8120EDA71006841B199
:1006700000F1100107E000F1240101204FF4001205
:1006800003E000F10C01002020220B681A430A60ED
:1006900070BD90F820100139012984BF00207047F7
:1006A0000068816882688068C1F38061C2F3C062BB
:1006B000C0F3007011440844704700002DE9F84F62
:1006C000044600684669D0F804908768D0F80CB0FA
:1006D000D0F810A0D0F81880F10701D1002545E02E
:1006E000F9070FD001218160B80708D4780720D41A
:1006F000380700F1B980204600F0EFF902E020460B
:1007000000F0ECF90025F80518D520684FF4807149
:100710008160B80509D478050ED438054EBF05F5BB
:100720008045204600F0DBF908E0204600F0D8F9CB
:1007300004E04FF40065E6E705F50055F80315D52C
:1007400020684FF480318160B80309D478030BD45A
:1007500038034EBF05F58035204600F0C2F905E0AC
:10076000204600F0BFF901E005F50045300748BF1D
:100770005FEACB6050D4700748BF5FEA0B7051D47A
:10078000B00706D52068C068800702D0204600F078
:100790004DF9700648BF5FEACA604AD4B00648BF48
:1007A0005FEA0A704BD4F00606D52068006980071E
:1007B00002D0204600F069F9B00348BF5FEAC96083
:1007C00044D4F00348BF5FEA097046D4300464D5CE
:1007D0005FEA49705ED5C6F30021F005023101EAF7
:1007E0000801B20558BF08EAD071720508F004008C
:1007F00048BF01440D4330054CD518F0700049D076
:1008000010380009052840D8DFE800F003313437FC
:100810003A3D45F0080538E02068102145F40075A0
:10082000C160A8E720680821C160204600F0FCF8FC
:10083000A6E72068102145F480650161AEE72068D5
:1008400008210161204600F01FF9ACE72068102163
:100850004160204600F01AF9B3E7206808214160A2
:10086000204600F040F9B1E74FF480554BE745F0E2
:1008700010050AE045F0200507E045F0400504E0DA
:1008800045F0800501E045F480752068816921F01C
:10089000700181612068042141603DB1606A284394
:1008A00060622046BDE8F84FFFF78FBEBDE8F88FC5
:1008B00070B598B1044690F8200010B9204600F0B9
:1008C00065F800F09EFF054620684168C90707D11A
:1008D00000F0F0F9401B0B28F6D311E0012070BDA9
:1008E000016821F00201016000F0E4F9054620688A
:1008F000416889070BD500F0DDF9401B0B28F6D3C2
:10090000606A052140F40030606201203AE0217EF7
:10091000026822F08002012908BF80320260617EF5
:10092000026822F04002012908BF40320260A17E25
:10093000026822F02002012908BF20320260E17E15
:10094000026822F01002012918BF10320260217FD4
:10095000026822F00802012908BF08320260617FA4
:10096000026822F00402012908BF04320260261D39
:100970006ECE1A432A43013932431143C16100202C
:100980000121606284F8201070BD0000B0B586B00F
:1009900000683B4A0021059190423FD1F148C34C89
:1009A000426842F000724260426802F000720192B6
:1009B000019A026842F008020260006800F0080034
:1009C00001904FF48070CDE903110290019802ADBF
:1009D0002046294600F098F8032029460590022079
:1009E00003904FF400700290204600F08DF8DE482E
:1009F0000B4A016811400B4A114300220160142088
:100A0000022100F0BFF9142000F0B0F915200221F6
:100A1000002200F0B7F9152000F0A8F906B0B0BD2B
:100A2000FF9FFFF80040000770470000BCB5134D62
:100A3000044600201249CDE90000C5E90000206805
:100A4000884216D105F110026B4620460021FFF7BF
:100A5000BDFD70B9286A6946688128466A89FFF732
:100A600061FB2869E969E860064829722946FFF7B1
:100A700011FC20460221FFF7DDFCBCBD281400203C
:100A8000006400405C140020704770477047B0B5A8
:100A9000044690F82000012816D1022084F8200096
:100AA0002068016821F00101016000F003F90546AA
:100AB00020684068C0070DD000F0FCF8401B0B28F0
:100AC000F6D300F0F9FE03E0606A40F400206062B3
:100AD0000120B0BD00206062B0BD70477047704714
:100AE0007047704770477047B0B5044600F0E2F8B1
:100AF00005468D48611C007818BF044400F0DAF800
:100B0000401BA042FAD3B0BD2DE9FC4F5D4A04233F
:100B10004FF0000B4FF001084FF00F0C4FF00009A1
:100B2000904208BF0323009300250C6834FA05F2B5
:100B300008BFBDE8FC8F08FA05F2144200F09D8062
:100B40004F68032F16D9112F24D0122F26D0504BC7
:100B50009F4213D04F4B9F4210D04F4B9F420DD01E
:100B60004E4B9F420AD04E4B9F4207D04D4B9F4267
:100B700004D020E0DFE807F00216191D8C6834B1BC
:100B8000012C14BF426102614FF0080913E04FF0DD
:100B9000040910E0CC6804F104090CE0CC6804F10D
:100BA0000C0908E0D1F80C9005E0CC6804F10809C4
:100BB00001E04FF000095C460746082D28BF203CA5
:100BC00028BF04373B680CFA04F609FA04F4B3436F
:100BD00023433B60CB79DB064FD5624C4FEA950E41
:100BE000236843F001032360236803F001030193AA
:100BF000019B254BA3F57E742B4B54F82EA09842F5
:100C000008D02A4B984207D0294B009E984208BF33
:100C1000022602E0002600E001260BF00C030F275D
:100C200007FA03FC06FA03F3174E2AEA0C074FF003
:100C30000F0C3B4344F82E304F68FB03336854BF1E
:100C400023EA020443EA02043460BB03736854BF1E
:100C500023EA020443EA02047460FB02B36854BF4F
:100C600023EA020443EA0204B460084CBB0223688E
:100C700054BF23EA02021A4322600BF1040B013530
:100C800053E700BF00140140000401400C04014080
:100C900000001110000012100000211000002210AE
:100CA000000031100000321000080140000C01402B
:100CB0000010014005480068704700BF1A4803490A
:100CC00000780A6810440860704700BFD4180020FC
:100CD00080B58E48016841F010010160032000F0EA
:100CE0006DF8002000F004F800F020F8002080BD2E
:100CF00070B50D4E04464FF47A713078B1FBF0F0C8
:100D000084490968B1FBF0F000F0B0FA01250F2C1E
:100D100008D838B94FF0FF3021460022002500F0F6
:100D200031F87460284670BD0000002082B00D4884
:100D30000222016841F001010160016801F0010136
:100D400001910199416841F080514160406800F093
:100D50008050009000980448016862F31A610160B5
:100D600002B070471810024004000140002806D469
:100D7000734600F0C9FC9E46014A42F820107047B5
:100D800000E100E070B5134B4FF0FF351B68C3F373
:100D90000223DC1E83F0070338BF002405FA04F6A3
:100DA000B243042B28BF042305FA03F39943A1405F
:100DB0001143BDE8704001F07DB900BF05494FF611
:100DC000FF030A681A4060F30A22034810430860D0
:100DD000704700BF0CED00E00000FA052DE9F84374
:100DE00000286CD0884649490446086800F007008E
:100DF00040450AD2086820F0070040EA0800086071
:100E0000086800F00700404559D12068504B8946DA
:100E1000810711D5410703D5196841F4E0611960D4
:100E2000010703D5196841F460511960A1681A6877
:100E300022F0F00211431960C00737D1D9F8000041
:100E400000F0070040450DD9D9F8000020F0070058
:100E500040EA0800C9F80000D9F8000000F00700D7
:100E600040452CD12068410705D5E1681A6822F475
:100E7000E06211431960000706D52069196821F462
:100E8000605141EAC00018601C4600F047F8216834
:100E90001F4AC1F30311515CC840F24908601E4863
:100EA0000068FFF725FF0020BDE8F883606802288E
:100EB00008D0012825D153F8041C890306D4012049
:100EC000BDE8F88353F8041C8901F8D519681D465C
:100ED00021F0030108431860FFF7ECFE064641F2DB
:100EE0008837606829682B4601F00C01B1EB800F50
:100EF000A4D0FFF7DFFE801BB842F2D90320BDE883
:100F0000F88353F8041C8907D9D5DFE70020024095
:100F1000C2430008201400200400002010B50C4932
:100F20000C480A6802F00C03082B07D1C2F3834374
:100F300009A4D203E35C02D40C48584310BD0968ED
:100F400009A25843C1F34041515CB0FBF1F010BD20
:100F50000410024000127A00020304050607080983
:100F60000A0B0C0D0E0F10100102000000093D00CD
:100F70002DE9FC41002800F09C8004460078B74E23
:100F8000C0071FD0706800F00C00042814D000F0D7
:100F90003FFC02D17068C0030ED46068002800F0E6
:100FA0001481B0F5A02F00F02181B0F5803F00F052
:100FB000218100F079FB20E13068800302D5606870
:100FC000002876D02078800716D5706810F00C0FB6
:100FD00005D000F01DFC24D17068C00321D4306816
:100FE000800702D52069012863D16069316821F04A
:100FF000F80141EAC00030602078000741D5A069BF
:1010000010B397480121C0F88014FFF753FE05463E
:10101000706A800728D4FFF74DFE401B0228F7D9DD
:10102000F8E021698E48002900F08E8001210160DE
:10103000FFF740FE054630688007D6D4FFF73AFE3A
:10104000401B0228F7D9E5E085480021C0F880144C
:10105000FFF730FE0546706A800712D5FFF72AFEBB
:10106000401B0228F7D9D5E07E484FF4FA510068BA
:10107000B0FBF1F0019000BF0198411E00280191E2
:10108000F9D12078400717D4E7697FB100F0C0FBA1
:101090003CD1012F0DD0216A706800F480328A4261
:1010A00007D1616A00F47010884202D10020BDE8C7
:1010B000FC810120BDE8FC81F06910F0805808D166
:1010C000F06940F08050F061F06900F080500090CD
:1010D0000098654F3868C0050FD4386840F48070B8
:1010E0003860FFF7E7FD05463868C00505D4FFF70F
:1010F000E1FD401B6428F7D98CE0E068A0B3052827
:1011000044D0012846D000F0F7FA46E054490020C8
:1011100088460866FFF7CEFD0546022F0AD14746EE
:101120003068800179D5FFF7C5FD411B03200229F6
:10113000F6D9BCE730688001B8D5FFF7BBFD411B8D
:1011400003200229F6D9B2E700210160FFF7B2FDC2
:101150000546306880077FF54FAFFFF7ABFD411BB9
:1011600003200229F5D9A2E700F0C6FA3062FFF7A2
:10117000A1FD054641F28837306A80071CD5FFF78C
:1011800099FD411B0320B942F6D990E7306A40F03F
:1011900004003062306A40F001003062FFF78AFDDF
:1011A000054641F28837306A800705D4FFF782FD93
:1011B000401BB842F7D92DE0B8F1000F7FF464AFBF
:1011C000F06920F08050F0615EE700F06DFA306069
:1011D000FFF770FD0546306880037FF5F3AEFFF73B
:1011E00069FD411B03206429F5D960E7306840F4AC
:1011F00080203060306840F480303060FFF75AFD66
:101200000546306880033FF5DDAEFFF753FD401B18
:101210006428F6D90320BDE8FC81206AB0F5803F40
:1012200005D1A168726822F4003211437160616ACD
:101230000843716821F47411084370600120386616
:10124000FFF738FD0446306880013FF52FAFFFF708
:1012500031FD011B03200229F5D928E700100240C7
:10126000000042422014002000700040411E002077
:10127000B0EB116F1CBF01207047044AF02351608E
:1012800003490B70072190601160704710E000E087
:1012900023ED00E07047704710B590F83C30022213
:1012A000012B20D080F83D2002680B68546824F0A0
:1012B00070041C439368B2F1804F546008D0344CE2
:1012C000A24205D0334CA24202D0F24CA24204D139
:1012D000496823F08003194391600022012180F8BE
:1012E0003C2080F83D10104610BD00BF58B110B52D
:1012F00000F049FB03D100F0CCFA00F007F800F051
:1013000069FB00F008BA012070470000E0B50068F2
:10131000E049884218BF8CBD09480022016841F0AD
:10132000040101600121006800F0040001900198AF
:101330001E20FFF727FD1E20BDE88C40FFF716BDDD
:101340001C10024090F83D1001291CBF012070477D
:10135000022180F83D100068C168B0F1804F41F073
:101360000101C16008D00A49884205D00949884274
:1013700002D0C849884204D1724600F0FFF996466F
:1013800003D0724600F02DFB96460020704700BF48
:1013900000040040002C0140B0B500F0D2FA1DD08E
:1013A00084F83D0001204FF6777584F83C002068F2
:1013B000024652F8083FAB4313600B682BB1102B69
:1013C00003D0202B18BF302B09D1106820F07000FB
:1013D000184340F00700106000F0F5FAB0BD402B54
:1013E0000DD0502B15D0602B1DD0B3F5005F27D04A
:1013F000702BF1D100F02BFA40F07700EBE700F012
:10140000DDFA226852F8080F40F0470020F0300063
:10141000E1E700F0D3FA226852F8080F40F05700D5
:1014200020F02000D7E74B68CA68194600F09DFD00
:10143000226852F8080F40F0670020F01000CAE759
:1014400000F005FA40F48040C5E7704710B5044647
:1014500000680169890712D5C16889070FD56FF047
:1014600002010161012121778069800702D000F02B
:1014700094FA01E000F02CFA00202077206801693E
:10148000490713D5C168490710D56FF00401016100
:1014900002212177806910F4407F02D000F07DFAAC
:1014A00001E000F015FA00202077206801690907A3
:1014B00012D5C16809070FD56FF008010161042139
:1014C0002177C069800702D000F067FA01E000F0E0
:1014D000FFF90020207720680169C90613D5C1688B
:1014E000C90610D56FF01001016108212177C0698C
:1014F00010F4407F02D000F050FA01E000F0E8F96B
:101500000020207720680169C90709D0C168C90790
:1015100006D06FF001010161204600F02DF820682F
:101520000169090609D5C168090606D56FF0800171
:1015300001612046FFF7AEFE20680169490609D522
:10154000C168490606D56FF040010161204600F0F0
:101550001BF820680169890602D5C168890600D494
:1015600010BD6FF0200101612046BDE81040FFF77B
:1015700092BE70477047000000684649884208BF25
:1015800000F004BD704700BF7047FEE710B5074C80
:101590002178206902F01EFD2069002102F0BAFDC9
:1015A00003487F21BDE8104002F0B4BD5C14002068
:1015B00010000020B0B50C480C4D002104244FF45D
:1015C000E0024FF40023C0E90054C0E90211C0E971
:1015D000043281618183FFF76BF918B1BDE8B04037
:1015E000FEF7F2BEB0BD00BF9C17002000640040B3
:1015F00083B00F48016841F020010160016801F0EB
:10160000200102910299016841F004010160016822
:1016100001F0040101910199016841F008010160A4
:10162000006800F008000090009803B0704700BF09
:101630001810024010B586B01548164C00214FF620
:10164000FF7247230591CDE90311CDE900118161B6
:10165000C0E90043C0E902120161FFF747FE08B18B
:10166000FEF7B2FE4FF480500290094802A9FFF73E
:1016700093FE08B1FEF7A8FE00206946CDE9000000
:101680000348FFF709FE08B1FEF79EFE06B010BD45
:10169000C417002000080040FEE7FEE7026802EBE6
:1016A0000112D2F8BC217047306820F480303060DD
:1016B000306820F48020704700FB01F320460021B1
:1016C000009300F0F3BAA16801EB46014880B1F93C
:1016D0000400FEF75FBE0090404600F0E7BA0168E4
:1016E000D0F80300CDF8030000917047026802EBC8
:1016F0000112D2F8B8217047306A20F00100306240
:10170000306A20F00400704700F01F0101224009F8
:1017100002FA01F17047012084F8460084F83E0087
:1017200084F83F0084F8400084F8410084F84200C7
:1017300084F8430084F8440084F8450084F83D00B0
:10174000002010BDB0F90200FEF724BE2246CDF8FD
:1017500016508DF81A508DF8130010208DF81500D2
:101760009DF81B0000FB076090F840008DF8140006
:10177000404602F0BEBB204602F08EBD816801F0FB
:101780000701062970478DF81300404601F020B884
:101790009DF81B10542001FB008090F82A20704710
:1017A000B0F874004FF6FF73984270479DF81B1015
:1017B00008F12805542670479DF81B1008F12806EB
:1017C000542770479DF81B1022465B46CDE90070F8
:1017D000404600F0A5BF072009F1050320EA5202A8
:1017E000404600F045BAB0F94C00FEF7D3BD99F879
:1017F0000410C1F3800180F85C1099F80410890787
:1018000070472068016841F001010160FFF752BA9A
:10181000706800F00C00082870479DF81B105420D9
:1018200001FB008070474046514600F0F4BE99F835
:10183000056099F8065099F80770002846EA052BCC
:1018400070470DF113018DF8130001207047D1E9A5
:101850000103C968184340EA0120116821F47F415F
:10186000084310601068704754254FF6FF7301FB62
:101870000580B0F87400984270479DF81B10542002
:1018800001FB008090F82A30022B7047224602F0BC
:1018900030BB002084F83C002046704709F1050366
:1018A0004046072200F0E4B99DF81B10542201FBCA
:1018B000028292F82A207047606A40F40030606229
:1018C000052084F820007047542001FB00807047F9
:1018D0004DF808ED2046FFF74CFE20465DF808EB7A
:1018E000FFF748BE542001FB008090F82B3090F8A1
:1018F00032607047431C404600F06ABF451C4046BA
:101900002B4600F065BF8DF81300404602F0F1BA97
:101910009DF81B10404600F093B99DF81B1001FB89
:101920000652A2F84C00704700F1240101204FF448
:10193000802270470DF1130100228DF81300012061
:10194000704790F83C2004460220012A70479DF819
:101950001B1001FB0641A1F84C0070478DF8155093
:101960008DF814607047CDE900104046214670475D
:1019700040462146524670479DF81B0000FB076019
:1019800080F840507047044690F83D0000287047AA
:10199000000107228DF8130070472046FFF755BD60
:1019A000A2F84C0099F8042070479DF81B105420B1
:1019B00001FB008090F82A30032B70474B68CA68FF
:1019C000194600F0C1BA0020012184F83C0084F8D7
:1019D0003D1070470220211D84F83D00206800F072
:1019E0007BBA016841F0010101607047A2F84C0028
:1019F0000020704700B2FEF7CDBC80B502F006FCB7
:101A0000002080BD1CB50446B0F9FC01FEF7C2FC05
:101A1000A4F8FC01D4F8F801008858B14FF47A71A9
:101A2000054A0023484300210090204600F03EF97B
:101A3000A4F8FC0100201CBD5B1B000810B5044687
:101A400000F05CFF204600F021FF002010BD10B523
:101A5000D0F85C13097809B1002010BD90F8591333
:101A6000002200239942F7D0D0F8604344F82320A5
:101A70000133F7E7836801EBC102C9B203EB42020D
:101A80000023D3804FF6FF73538002F091B910B555
:101A9000836801EBC102C9B213F8124004F0FE04DE
:101AA00003F8124003EB42024FF6FF739380BDE848
:101AB000104002F07DB900002DE9F843044640696A
:101AC0000689DEB1A069DFF840904FF4C055E846C2
:101AD0000789B0B2B84211D8D4F83833A9B2204639
:101AE00042469847009931B90068C0F85C90C0F848
:101AF0003C90C0F82C9001360135EAE720460021E1
:101B000000F053FBBDE8F8839D1F00082DE9F84362
:101B1000044640690589EDB1A0694FF0000800272F
:101B2000B0F80890A8B2484514D8F9B2A06801EB03
:101B3000C10600EB4600FFF705FEFFF7C4FDA168F4
:101B40000135013701F8168001EB46018880A1F8C4
:101B50000680E7E7BDE8F88370471FB50446D0F874
:101B6000F801008898B120684FF480710078ADF8D2
:101B7000061094F8CC1100F5E0608DF80810ADF86F
:101B80000400D4F8340301A900F0CCFC1FBDB4F963
:101B9000FC01FEF7FFFBA4F8FC011FBDBCB51C4611
:101BA000D0F83833154601AA98470146019800B18C
:101BB000BCBD0A79AA42FBD9096801EB0511CC60CA
:101BC000BCBD00002DE9FC4104464069408890B34B
:101BD0000D46542105FB0147A16997F82820498843
:101BE0001044884227D86168144E3B8E51F830006B
:101BF00097F82910806B90F800804FF6FF70A7F8D7
:101C00007400852087F82A0097F83200CDE9000695
:101C1000204602F0A8F947F82C6FFA6C2AB120464A
:101C2000414690473868B04205D1E9B22046BDE848
:101C3000FC4102F0A0B8BDE8FC8100BF0000040533
:101C4000BFB5542201FB02031A4652F8341F09B9EA
:101C5000996B1160039193F83220198E3C33012463
:101C600003ADCDE90054029400F038FB04B0B0BDE0
:101C7000F0B5542401FB0401084650F8384FA5186C
:101C8000202D84BFFF20F0BD0025EEB2964206D283
:101C9000A7199E5D01350F4487F83C60F5E70168A0
:101CA000114401600020F0BD704700002DE9F84F9D
:101CB000DFF8E8838146FA4F9A4615460026B8F9C0
:101CC0000000431C80B24FF6FF72072E2FD8B3429C
:101CD0002DDB0DB13A7812B118370136F3E7B34274
:101CE0004FF6FF74009104BF0130A8F80000A24530
:101CF00038BF544600F07AFC8346D8F80400B0EBB5
:101D00000B0088BFA04206D90BEB0400C8F8040002
:101D1000204602F04DFA012000993246C7E90195AC
:101D200038700BEB0A00C7E903100A98786110B20B
:101D3000BDE8F88FA1F5A050032826D9A1F5B05031
:101D400003282AD9A1F5C05003282ED9A1F5D050D7
:101D5000032832D9B1F5805F37D0B1F5005F36D0B6
:101D600041F21000814234D041F21700814232D05A
:101D700041F21800814230D0B1F5905F2FD041F28E
:101D8000010081422DD1012046E00FF20601DFE87B
:101D900000F0022C2E3006203EE00FF20601DFE8B4
:101DA00000F0022A2C2E0A2036E00FF20601DFE8AE
:101DB00000F002282A2C0E202EE00FF20601DFE8A8
:101DC00000F00226282A122026E0002024E0162017
:101DD00022E0022020E003201EE004201CE0052079
:101DE0001AE01148106000207047072014E0082016
:101DF00012E0092010E00B200EE00C200CE00D207A
:101E00000AE00F2008E0102006E0112004E0132073
:101E100002E0142000E0152000211160014901EBCF
:101E2000C0007047F0430008000002069F2803D15D
:101E3000087808B101487047002070473000090653
:101E4000E0B5024604480021002302600020009013
:101E50000020FFF72BFF8CBD0C18002002F09FB86C
:101E6000FEF72CBFB0B590B000241421CDE90B448F
:101E7000CDE9094401A8FEF76EF94FF4E010022500
:101E8000012108940F904FF480300D950A910E9027
:101E9000CDE9061006A8FFF76BF818B1EFF3108034
:101EA00072B6FEE74FF4806005940221CDE903404D
:101EB0000F20CDE9010501A8FEF790FF18B1EFF35F
:101EC000108072B6FEE710B0B0BD70470148FFF752
:101ED000BDBA00BFC417002070B5184A036890420D
:101EE00018BFB0F1804F22D14C6823F07003234318
:101EF000904208D0B0F1804F05D0114CA04202D0E2
:101F0000104CA04203D1CC6823F4407323434E69A4
:101F100023F080030C688D68334390420360C562F0
:101F2000846201D1096911630121416170BD044CD2
:101F3000A042D9D0034CA042D6D0DBE7002C014010
:101F4000000800400004004010B5036A046A24F051
:101F500001040462846924F0F00444EA02128261FC
:101F600023F00A021143016210BD036A23F010033B
:101F70000362836923F4704343EA0232036A826195
:101F800023F0A00242EA01110162704702480021D9
:101F9000C0E9001100F02CB85414002070B50446BC
:101FA00090F8D20110B3052A20D80120904010F0FB
:101FB0002C0F1BD06369D4E901021B8900EBC3001D
:101FC000081AC0F3C70505EBC50602EB4600FFF78C
:101FD000B9FBFFF778FBA168002201F8162001EB9E
:101FE0004601888020462946FFF744FD002070BD49
:101FF0002DE9F84300F0FAFADFF8A090DFF8A080AE
:1020000000274FF0020C4FF0030ED9F80410B9F975
:10201000006008F110030A184FF6FF713DB2B54297
:102020001BDC13F8105CED0711D01D68954201D937
:10203000AC1A08E05D686DB1B0FBF5F403F810EC84
:102040006C43241A2C441C608C4238BF2146183340
:102050000137E3E703F810CCF9E70846C9F80410A4
:1020600002F0A6F808F108050026B9F9000031B21F
:102070008142C8BFBDE8F88315F8080C810709D56F
:102080002A6800F0FD0005F8080C1AB1696855F8D7
:10209000040C904718350136E7E700BF0800002020
:1020A000101800200148FEF709BB00BF9C17002054
:1020B000FEE7704710B5074C00F00F03B0F1FF3F8B
:1020C000034A2344C8BF83180801187010BD00BF1D
:1020D00000E400E014ED00E02DE9F8431C46D0F8E0
:1020E000383315466A4698470646009808B1BDE859
:1020F000F8833079A84213D90A9820B131682801B1
:10210000085CC0070FD18CB13068DDF8208000EB8F
:102110000510D8F80020416891420BD9194826E0F3
:10212000A348BDE8F8831648BDE8F8834FF0006087
:10213000BDE8F883DDF82490407889F80000306825
:1021400000EB0510D0E9017120463A46FDF7EAFFA1
:1021500099F8000009280ED13068D8F8001000EB7B
:1021600005104068814206D90020791CE055C8F866
:102170000010BDE8F8830020C8F80070BDE8F883BF
:10218000010001060500040570477047704770475D
:1021900070477047704770477047016A097801B10E
:1021A00070470021812200F062BB2DE9FE4F0646F8
:1021B00090F8D201002800F0888070694FF0000A82
:1021C0000789002F00F08380B0698946E846002423
:1021D000CDE900AAB0F808B00320CDF808A0B9B244
:1021E000594572D800F00F000B2834D0052836D09E
:1021F00003286FD1706850F83110886902680B208D
:10220000002AECD4886AB9F1000F027845D0511E3B
:10221000C9B2EF292AD8E1B2B36801EBC10513F8BE
:102220001520013203F815205FFA82FC02789445EC
:102230001CD103EB4500424680F800A03046CDF8A3
:1022400008A0CDE900AA00F0BCF800286FF0040057
:1022500008BF0520C3E7013701340320BFE7E1B21F
:102260003046424601F031FE0B20B8E712B30B2096
:10227000FC2AB4D1E1B2B06801EBC10500EB450026
:10228000821D304600F09DF8B16811F8152001EB71
:102290004501A8B102F0FE0014E00B20FE2A9ED3F7
:1022A000E1B2B06801EBC10110F81100C0074FF0B6
:1022B0000B0094D1E1B2304601F07AFD0B208EE79D
:1022C00042F0010008700B2089E74FF0000A5046E9
:1022D000BDE8FE8F4FF0FF0AF9E700002DE9FE4F41
:1022E0009846D0F83833144602AA0D460646984759
:1022F0000746029808B1BDE8FE8F3879A04209D997
:102300000D99386849B12101415C022905D129485C
:10231000BDE8FE8F2648BDE8FE8FDDF830A000EB5B
:102320000410D0F804B0DAF80010594504D9224856
:10233000CAF800B0BDE8FE8FC16890F80190726ADB
:10234000019148464146904700280290D3D1386811
:10235000DAF80020414600EB04108068FDF7E2FE49
:10236000B9F1090F09D1DAF80000584505D23968EA
:10237000002201EB041189680A54019BCAF800B0DD
:1023800033B1304639462246984700280290B2D1F0
:1023900039682001085C400751BF0020D6F83C3363
:1023A0003046294644BF22469847BDE8FE8F00BF0D
:1023B0001100090602000106100007067047002000
:1023C00070472DE9F04F8DB04568089040690026B0
:1023D00004920DF1280B4FF0000A4FF0000996709F
:1023E0000389408905EBC30353F831309B691C888E
:1023F00013466FF3DF24148005EBC00252F831005E
:1024000007928568CDE90515CDE90A6652F83100D5
:1024100000EB091087693868C4B294B304EB0A086A
:10242000B8F1400F2DD8621E01255B4605EBD202A4
:1024300009927A7809A90395002500910DF13301DD
:10244000CDE90116010C0898FFF746FE28B1059961
:10245000DDE906520020002616E004990AF0070084
:1024600000220023029501EBDA010431CDE90010CE
:1024700020465946FDF745FF0599DDE90652C2465B
:10248000002609F10109012058B128788145BBD304
:10249000AAF10100012101EBD0000499C8700020CD
:1024A00000E0FF200DB0BDE8F08F000010B50A88F5
:1024B000D3090E2B35D8DFE803F0161D08080808ED
:1024C00008080808080F0F34260090F8D22142B3FC
:1024D000BDE8104000F00CBB90F8CE210AB3BDE877
:1024E000104000F035BC026A1278D2B1BDE810404D
:1024F00000F039BA802A0DD190F8D01189B1BDE829
:10250000104001F017BC90F8D12152B1BDE8104045
:1025100000F076BA90F8CF211AB1BDE8104000F073
:1025200013BA10BD80B50A4A1269D2F83423824228
:102530001CBF002080BD8B780888CA780431013B1D
:10254000B3FA83F35B095B00FDF784FEFF2080BDD7
:102550005C140020B0B5064B41F203010022044692
:102560000025FFF71BFBD4F85C030570B0BD00BF6E
:102570004F1A000870472DE9FE4F1C460DF10B0362
:1025800015460E46074600F056F8DDE90C98012D79
:1025900008BF002818D0022D08BF002819D19DF8C7
:1025A0000B0007F1280A4FF0540B00FB0BA0FFF7BC
:1025B0001AF99DF80B1001FB0BA1A1F84C00852026
:1025C000C1F80480887004E09DF80B10384601F0D3
:1025D000D2FB3846294632462346CDE9009801F021
:1025E000C2FC002818BFFF20BDE8FE8F0648074A3E
:1025F0004FF6FF710068406AD2E90032984238BF56
:102600000844D11A08447047C4170020541400200D
:1026100000680078704710B529300023052B04BFEF
:10262000FF2010BD447814B154300133F6E7137025
:102630000170002010BDB0B500F12A04002005286B
:1026400004BFFF20B0BD25784DB1852D07D014F80B
:10265000025C8D4203D114F8015C954202D05434DF
:102660000130ECE703B118700020B0BD2DE9FC414A
:102670001A4B41F21701002204464FF00008FFF701
:102680008DFA184D4FF47A77002684F83083D4F809
:10269000EC010078864213D2D4F8F00130F826001D
:1026A00060B100FB07F3204631462A46CDF8008092
:1026B000FFF7FCFAD4F8F41121F816000136E6E72A
:1026C000D4F8F801008830B14FF47A71044AFEF76B
:1026D000F3FFA4F8FC01BDE8FC8100BF051A000867
:1026E0005B1B0008DD020008B0B504460025D4F8E5
:1026F000EC01007885420BD2D4F8F40130F91500D2
:10270000FDF748FED4F8F41121F815000135EEE785
:10271000B4F9FC01FDF73EFEA4F8FC01B0BD0000D9
:102720002DE9FC47DDF82C800746DDF828901D4692
:1027300092460E46A8F1020003280DD80020194A3F
:10274000194B314600903846FFF7B0FA542106FB8A
:102750000171A1F8740008E0542006FB0074B4F97C
:102760007400FDF717FEA4F874005420002106FB46
:102770000070C0E9181180F83290058680F828A012
:10278000816780F8731080F85E10A0F85C10C0E9D3
:102790000D1180F82B1080F82A80C0F867100020F7
:1027A000BDE8FC87C51B0008C0C62D0010B5044657
:1027B000FFF75CFF2046BDE8104000F067B810B599
:1027C0000446FFF791FF2046BDE8104000F096B8A0
:1027D000F0B5542401FB0406344654F8385FAF18B2
:1027E000202F02D8766BB74201D9FF20F0BD5427C5
:1027F000002601FB0700F1B2914206D26F180136A4
:10280000074497F83C705F54F5E720681044206057
:102810000020F0BDFEF75CFAFFF724FBFEF7E8FEB0
:10282000FEF7C8FEFEF706FFFDF712FDFDF746FDB9
:10283000054D064C287801302870204601F042FBF7
:102840000A20FEF751F9F5E7D0180020100000200B
:10285000F8B5012201F5E061D0F83403ADF80620A7
:10286000ADF8041001A9FFF75DFE04B080BDF8B516
:102870008DF809104FF00071D0F834038DF808205E
:10288000019101A9FFF74EFE04B080BDBCB5194D02
:1028900041F20C01002204462B46FFF77FF9204647
:1028A00041F20D0100222B46FFF778F9D4F88C0293
:1028B0000088E8B1D4F890120978C9B14FF47A7160
:1028C0000D4A0025FEF7F8FEA4F88402802D0FD0F3
:1028D000601990F804120F2908D0216809788D42F8
:1028E00004D0D4F89012097880F894120135EDE7FD
:1028F000BCBD00BF3D1A0008D103000810B5044656
:10290000B0F98402FDF746FDA4F8840210BD70B54D
:1029100086B0202201230DF113050592542201FBFC
:10292000020494F83220218E05AECDE9023304F181
:102930003C03CDE90065FFF7CFFB18B9059A0021EC
:10294000C4E90D2106B070BDBCB5CA78082A09D10A
:102950008B798A8831F8075BD0F88C43009105F0B9
:102960007F01A047BCBDB0B5044690F8CC01021F62
:10297000022A01D37F2841D14A791AB123681B78F2
:102980009A423BD1097982291BD002290CD0802997
:102990002AD081290FD0012930D17F2801D00428E5
:1029A0002CD12046052125E07F2801D0052825D1FE
:1029B000204604211EE0D4F8E41191B12046884756
:1029C0000FE02046FFF724FED4F8E811054609B1D0
:1029D000204688472068FF2101702046294601F0E3
:1029E000F9FA2046002105E000F0FE00042805D198
:1029F00020467F21BDE8B04001F08CBBB0BD000097
:102A00002DE9FF470446088800F07F0588780128F3
:102A100019D120680078854266D14FF4807094F80F
:102A20003013ADF8060005F5E060ADF8040094F849
:102A3000CC0100298DF808004ED040F080008DF8C0
:102A40000800002049E0D4F890226019097900F5C7
:102A50000177127801F07F0680F8942290F8040242
:102A6000B04206D0D4F82C33204629463246984747
:102A70003E702EB9D4F828232046294690473E7848
:102A80000F2E31D0DFF864A04FF000084FF47A79B0
:102A90000027D4F8EC010078874225D2D4F8F00161
:102AA00050F82760C6F30740A84213D1D4F8F401C8
:102AB00030F91700FDF76EFCB0B239465246CDF83A
:102AC000008000FB09F32046FFF7F0F8D4F8F4117A
:102AD00021F817000137DCE7012084F83003D4F82F
:102AE000340301A9FFF71EFDBDE8FF87DD020008E2
:102AF0002DE9F04F8BB083468878012827D0002835
:102B000040F0F680DBF814E0BEF80400002800F086
:102B1000EF80DBF818204FF0000C938885B2022676
:102B20009D4200F2E58006F00707042F50D0022FE7
:102B3000F6D1DBF804600A8856F83560B669376864
:102B400004269742ECD001300CF1010CE6E7DBF8EB
:102B500014000089002800F0CB80DBF818204FF02B
:102B6000000C128983B25FFA8CF80125934200F2BF
:102B7000BF8005F00706052E00F08D80042E0CD0D6
:102B8000012EF3D1DBF804500F8855F83350AD69AE
:102B90002E680425BE42E9D016E0DBF8045055F853
:102BA0003350AD6A2F78FC2F03D00525FD2FDDD0E3
:102BB000A3E0DBF8086008EBC80716F81750ED072C
:102BC0004FF00505D2D0BDE001300CF1010CC9E792
:102BD000BEF80640DBF804005FFA8CF300254FF0E6
:102BE000000CCDE9033100EBC40050F833008668D7
:102BF0003078854257D2DBF804004FF00008CDE969
:102C0000068800EBC40050F8330000EB0510D0F844
:102C100018A0BAF1000F3AD09AF80070A7B35FFA83
:102C20008CF0CA7807EB0009B9EBC20F2CD801EB86
:102C3000D00006AA4FF000080023CDF814C0CDE95B
:102C40000028011D0CF007023846CDF80880FDF77A
:102C500058FB781E012101EBE0000A90DAF8000031
:102C60000AAA0291CDE9002806AB010CC0F30722A5
:102C70005846FFF733FB20B1DDE90331DDF814C01E
:102C800005E0DDE90331CC4601354FF00108B8F12C
:102C9000000FADD105E006AA58464146FFF791FB6B
:102CA00008B3FF2525E0DBF80C0008B3DBF80410BF
:102CB000002551F83410896D0E88D6B130F9130013
:102CC0001F46FDF767FBDBF810204FF47A7039469A
:102CD000009506FB00F35846FEF7E8FFDBF80C1002
:102CE00021F8170005E0DBF8340306A9FFF71AFC0A
:102CF000002528460BB0BDE8F08FA7F1FE000228A2
:102D0000CFD2DBF8080008EBC80500EB4500FEF762
:102D100019FDDBF8081001EB45014880B1F904000A
:102D2000FDF738FBDBF8081011F8152002F0FE0261
:102D300001F8152001EB4501888058464146FEF711
:102D400099FED5E706EB4700811DDBF83403CDE79C
:102D50002DE9F04F87B0804689460020D8E905214B
:102D60008DF81B001388BBB10D8800209EB2AE42C7
:102D700012D8D8F8044004EBC6073F79022FC0F000
:102D80004A8454F83640B9F80060A4692468B44213
:102D90001FD001330130E9E75288002A00F03B845C
:102DA0004988002093B28B4200F23584D8F8044061
:102DB00004EBC3052D79042DC0F02D8454F8333075
:102DC000B9F800509C6A2468AC4207D00132013047
:102DD000E8E7012600254FF0010A04E0996B4FF067
:102DE000020A00260D7899F8031008294AD1C4B2C6
:102DF0000DF11B03404652462146FFF71CFC0028FC
:102E000048D099F804200721B1EB521F63D0510933
:102E1000DFE811F0070068008300C10054000F01D3
:102E20003301002E00F06181002840F0EC83FEF7B2
:102E300024FD40F0E883FEF7B3FC12D0FEF7DAFD84
:102E4000FEF7B4FCE54B01FB0652FEF7CFFDDFF8C1
:102E5000E02EFEF740FC9DF81B1001FB0652FEF72A
:102E60009FFDFEF73FFD058EC2F30010984240F033
:102E70008F84FEF7B0FC002800F08A854FF00060D8
:102E800000F087BC4FF000610022CDE90021C1B203
:102E90004046BCE3BAF1020F07D0BAF1010FB0D13E
:102EA000FEF702FD042AACD103E0FEF7FDFC052A83
:102EB000A7D199F80420802A40F01381002E00F059
:102EC000F880002840F014879DF81B10404600F061
:102ED00052FF00F00DBFC249002800F0A98201F1A5
:102EE000011091E3002E00F02D8199F8056099F80A
:102EF000065099F807B046EA052730B10DF11B02DC
:102F0000FEF791FC002800F0A783B648CDF800B08A
:102F10000190FEF72DFD3B467BE3002E00F064811F
:102F2000FEF785FC00F0A2800DF11B02FEF77BFC92
:102F3000002840F09B800320FEF744FC9DF81B1006
:102F40004046FFF7E4FC002840F091809DF81B10FC
:102F5000542001FB0082506B002800F08D85926B9D
:102F6000A0EB0209B9F1050FC0F0888541208DF86A
:102F70001670FEF7F3FC8DF817908DF813004FEAEA
:102F800019608DF81A004FEA19408DF819004FEAC0
:102F9000192000F0A5BE002E00F06081002840F04E
:102FA0003283FEF702FD40F02E83FEF7F9FB12D0CC
:102FB000FEF720FDFEF7FAFB884B01FB0652FEF7F9
:102FC00015FDDFF86C2DFEF786FB9DF81B1001FB4D
:102FD0000652FEF7E5FC5420C2F3001201FB008309
:102FE00093F82B0093F83260B3F83090904240F0A1
:102FF000D6835A6B002A00F0DD84542301FB03833F
:103000009B6BD71A082FC0F0D684FEF7C1FC0DF1D8
:103010001300FEF76FFC002840F0DC84FEF7FDFB98
:1030200090F82B10B1FA81F1490980F82B1000F0CB
:1030300059BE02F0030B002E00F05681BBF1010FC8
:1030400000F04982BBF1000F40F05082FEF7EFFB29
:103050000CD099F90800B0F1FF3F40F3E1830DF186
:103060001B02FEF7E0FB002800F0F0835D480097AC
:103070000190FEF77DFC5B46CBE2002E00F09081D4
:10308000002800F0E081D00740F0BD8299F805B03B
:1030900099F8066099F807700DF11B02FEF7C3FB63
:1030A0004BEA0623002800F019834E48CDE9007052
:1030B00011E3002840F01C869DF81B0008F128064B
:1030C0005427D9F8084000FB0760FEF78CFB9DF8F9
:1030D0001B1001FB0761A1F84C004C60802000F040
:1030E000F9BC002E00F06181AFE1002840F08B8236
:1030F000FEF75BFC40F08782FEF752FB12D0FEF732
:1031000079FCFEF759FB354B01FB0762FEF76EFCBD
:10311000DFF81C2CFEF7DFFA9DF81B1001FB07629D
:10312000FEF73EFCFEF7DEFB078EC2F3001098426E
:1031300040F03783FEF74FFB002800F053844FF038
:1031400000602FE3002840F05E82FEF796FB40F01F
:103150005A82B0F874304FF6FF70834213D018B221
:10316000FDF718F9FEF728FB1C4B01FB0762FEF781
:103170003DFCDFF8BC2BFEF7AEFA9DF81B1001FBFF
:103180000762FEF70DFC5423C2F3001201FB038714
:103190003E4616F82B3F96F807B0B6F805909342D6
:1031A00040F003837A6B002A00F04283542701FB2E
:1031B0000787BF6BD71B00F03B83B3FA83F040094E
:1031C000082F3070C0F0F784FEF7E2FB0DF113001A
:1031D000FEF790FB002840F0008581E0C0C62D007E
:1031E0000000030521000008002840F00C82FEF7D3
:1031F000DCFB40F00882FEF7D3FA12D0FEF7FAFBB0
:10320000FEF7DAFAE04B01FB0762FEF7EFFBDFF8AF
:10321000202BFEF760FA9DF81B1001FB0762FEF7FA
:10322000BFFBFEF751FB90F83260B0F830B090076A
:1032300000F1BF82D00708D0D9F80800202800F29A
:10324000C582542201FB028148636020FEF772FBB5
:10325000082800F0E8820A540130F9E7002840F01D
:10326000D281FEF795FA022A40F0CD81B0F87420A1
:103270004FF6FF70824213D010B2FDF78BF8FEF7C5
:103280009BFAC14B01FB0762FEF7B0FBDFF8A02AF7
:10329000FEF721FA9DF81B1001FB0762A2F84C0013
:1032A000542601FB0682536B002B00F05A82976B69
:1032B000DF1B00F05682542092F83260B2F8309052
:1032C00001FB0080082F90F82B00C0F04B83FEF725
:1032D0005FFB0DF11300FEF70DFB002840F07A8331
:1032E0004FF0020A00F0FEBCBBF1000F07D0BBF1AB
:1032F000010F00F0E383BBF1020F40F0848100284E
:1033000040F08181FEF744FA042A40F07C81B0F855
:10331000742090F83230078E4FF6FF70824203938C
:103320000FD010B2FDF736F8FEF740FA964B01FBCE
:103330000652FEF75BFBDFF8F829FEF7CCF9FEF743
:10334000ECFABBF1000F00F0D98299F90600B0F158
:10335000FF3F40F3FD82542201FB028585F85D00AA
:103360006B6B99F8052002F07F021BB1AE6BB34284
:1033700040F0B98395F86850AA4240F0B4835420D5
:10338000002201FB0080C12190F8690041EA800021
:10339000FEF757FA082800F0A5840A540130F9E72F
:1033A000002840F030819DF81B1054264FF6FF7224
:1033B00001FB0680B0F87400904214D0FEF71AFBAF
:1033C0009DF81B1008F128076F4B01FB0672FEF7F2
:1033D0000DFBDFF85C29FEF77EF99DF81B1001FB61
:1033E0000672A2F84C0001FB068010F86A2F022A30
:1033F00000F00581012A00F01381002A40F0788452
:1034000099F80420D20740F0738401220270FEF77D
:103410005BFAFEF7ECF944BFD9F808100166A32067
:10342000FEF788FA082800F05D840A540130F9E7B5
:103430009DF81B20542001F1011102FB0080038E36
:1034400090F8320045E19DF81B10FEF73DFA90F828
:103450006A00022800F09A80012840F04984FEF7B3
:1034600003FA14D0FEF7C6FA9DF81B1008F12806DF
:10347000454B01FB0562FEF7B9FADFF8B428FEF709
:103480002AF99DF81B1001FB0562FEF789FA01FB82
:10349000058002F07F0652B210F8683F5D1CB2F161
:1034A000FF3F40F3F580B54205D10670FEF7F6F90F
:1034B000002840F0CC800025102E40F0AD80A220E6
:1034C00008F1280654270DF113030121FEF73EF9F8
:1034D000FEF752FAA0E0002840F09580FEF79DF933
:1034E00090F82A0005283FF4F1AC8CE0002840F069
:1034F0008A80FEF74DF9052A40F08580B0F8740007
:103500004FF6FF7290420ED0FEF774FAFEF74EF9B6
:103510001D4B01FB0652FEF769FADFF81428FEF78F
:10352000DAF8FEF7FAF9FEF7CFF9BBF1020F90F8DF
:103530003270068E40F0B88299F8062080F85D203F
:10354000406B99F8052002F07F0230B1542301FB53
:1035500003839B6B984240F0ED82542301FB03836D
:1035600093F86850AA4240F0E58293F86900C121BF
:10357000002241EA8000FEF764F9082800F0B283D7
:103580000A540130F9E700BFC0C62D00D0073AD079
:10359000FEF76AF914D0FEF72DFA9DF81B1008F11A
:1035A0002806EC4B01FB0562FEF720FADFF88027C6
:1035B000FEF791F89DF81B1001FB0562FEF7F0F98C
:1035C00001FB058000F16C03072020EA92024046CF
:1035D000FEF74EFB9DF81B10D8BB542001FB008268
:1035E000106E18B1926B904240F0FA82A120FEF763
:1035F000A1F9082800F097810A540130F9E799F8F9
:103600000400C2074ED1D4480021FEF7ACF952465F
:103610000023FEF7B0FFFF25284607B0BDE8F08F76
:10362000542299F9047001FB028207F07F0612F818
:10363000683F5D1CB7F1FF3F40F3CC80B54240F0DE
:1036400097801670FEF72AF9002800F091809DF807
:103650001B10FEF739F937E002209DF81B102246B7
:103660003B46CDE900B04046FFF75AF899F8040010
:10367000810760D4C00700F02B81D9F8080020280A
:103680006BD89DF81B20542102FB018148631FE188
:10369000B54240F0AF800670FEF716F9022180F8BF
:1036A0006A109EE0542601FB068202F16C03072299
:1036B00022EA90024046FEF7DBFA9DF81B10002834
:1036C00000F0E88001FB0680038E90F832004FF096
:1036D0000061CDE90001FEF74BF99AE704209DF85F
:1036E0001B102246CDE900704046FFF719F89DF8FF
:1036F0001B1054200DF11303224601FB0080012111
:1037000080F86A10FEF773F844BFD9F80810016614
:103710008DF816708DF815608DF814B01020002506
:1037200051468DF81700A0208DF81A50ADF81850AA
:10373000FEF7E9F870E79DF81B105422C0F38100F2
:1037400001FB0283C0F1040240465A6309F10803F9
:10375000FEF78EFA002800F0B1804FF00060FFF70E
:10376000D5BBFEF747F99DF81B1001FB068166E00B
:103770000025102E7FF450AFA22008F12806542710
:103780000DF113030221FDF7E1FFFEF7F5F8AFE2BB
:103790007248CDE90060FEF7EBF82B4639E76F4839
:1037A0001AE16E480096FFF7B3BB6C48CDF800B045
:1037B00013E1C2F3810009F10803C0F10407404698
:1037C0003A46FEF755FA002800F02D814FF00060D0
:1037D00000964DE4B5420DD1167002220270FEF73C
:1037E00073F8D9F80410D9F808203346C0F86F20D0
:1037F000C0F86B10102000258DF814300DF1130364
:10380000514622468DF81500A220CDF816508DF8AD
:103810001A50FEF778F8FEF700F880F86850FBE6DB
:103820004F48FFF724BC0DF11303404602215DE22F
:10383000FEF7E0F89DF81B20542102FB0181A1F85E
:10384000740001208A6F81F82A0045E10520FDF708
:10385000B9FF9DF81B10542099F8042001FB00804B
:10386000C2F3800280F85C2099F8082080F85D207F
:103870004046FFF74CF800287FF4F9ABFDF7CDFF89
:10388000406B002800F01782542201FB0282926BE9
:10389000801A11E201FB0680006E30B1542201FB58
:1038A00002818A6B904240F0A481A120FEF742F889
:1038B000082800F0FD800A540130F9E7FEF728F8E7
:1038C00000287FF423AB9DF81B10404600F053FA0C
:1038D0006020002100228DF816B0FEF73FF88DF829
:1038E00013000DF113000430042A02D08154013278
:1038F000FAE70DF1130340460121F7E199F90800B9
:10390000B0F1FF3F24DD5420029701FB008299F8BB
:103910000400C0F3800082F85C0099F8080082F887
:103920005D00926B6BE10DF1130340460121FDF741
:10393000ADFFFDF7EDFF9DF81B1000283FF4C6AA70
:10394000542201FB028101220B8E91F83210A2E178
:103950000348D4E0C0C62D00210000080000030584
:10396000020004050E22A2EB470242EA00103A468A
:1039700001308DF813000DF11300FDF7BFFF48BBB8
:103980000020062F00F2AE81791CE8550F46F8E7BB
:103990009DF81B105420002201FB0080202190F88C
:1039A0002B0041EA0010FDF74CFF082848D00A54CC
:1039B0000130FAE700270E220DF11305A2EB4702B2
:1039C0006B1C42EA00103A460130FDF7DCFE00288D
:1039D00000F099804FF0006000960190FDF7C8FF5D
:1039E0004B4616E69DF81B00542600FB068292F813
:1039F0002B10B1FA81F35B0982F82B3099F804207F
:103A0000D20740F0F3806020002908BF70208DF8B5
:103A100013000DF1130101200022082800F062813B
:103A20000A540130F9E79DF81B0008F128045426D8
:103A300000FB0640FDF7D7FEFDF789FFCF6048E0A9
:103A40000DF1130340465146FDF720FFFDF7E5FE5B
:103A500090F82B20B2FA82F2520980F82B2099F8C4
:103A60000400C00700F044814046FEF7E9F8002852
:103A70007FF48FAEFFF728BA4FF0000910208DF8C1
:103A800015500DF113054A468DF816708DF8146027
:103A9000A0EB89002B1D40F04300FDF774FEC8B376
:103AA0004FF00060FFF7E3BA826BB946039653E02C
:103AB0000DF1130340460221FDF7E8FE9DF81B00BF
:103AC00008F12804542600FB0640FDF78CFEFDF7A4
:103AD0003EFF012088700A6D002A00F009814046EF
:103AE0002946904704E15425C2EBC20201FB05853B
:103AF0006E6E32449A42AA6340F280808B480399EA
:103B00000091FFF705BA781C002107280AD829542C
:103B10000130FAE709F104000021072802D82954EE
:103B20000130FAE70DF1130340465146FDF7AEFEB2
:103B3000FFF7CAB95423C2EBC202B946039601FB90
:103B400003835D6E2A4482429A6305D97748002137
:103B50000122FDF708FF5BE54FF0540B0DF1130A4E
:103B6000012601FB0B800AF101074266C9B2F3B2DC
:103B700001FB0B8090F85D20934200F2B980426B0C
:103B800080F86860002A68D0806B151A082D65D30C
:103B9000404607223B468DF81360FEF719FE0028C9
:103BA00063D1404601212246534600F0A2F99DF818
:103BB0001B100136DAE70E203A46A0EB4700002B37
:103BC00008BF40F0100001308DF813000DF1130014
:103BD000FDF794FE002800F08D804FF00060E5E5D1
:103BE000FDF772FE038E90F8320005E008F128041C
:103BF00069E70B8E91F832004C496AE50297542729
:103C00000DF1130A012601FB07830AF1010B5A6625
:103C1000C0B2F2B282426BD8C9B201FB0780426BDC
:103C200080F8686052B3806B151A082D27D3404680
:103C300007225B468DF81360FEF7CAFD30BB404695
:103C400002212246534600F054F99DF81B1001361C
:103C500001FB078090F85D00DAE7002546F0800060
:103C60002A463B46FDF78FFDC0B14FF00060039B35
:103C700021460122CDE900904046CAE4002546F0E5
:103C800080002A465B46FDF77EFDD0B303994FF0D6
:103C90000060029B0222FDF766FEBAE4681C002168
:103CA000072803D80AF800100130F9E70DF11303D3
:103CB0004046012131E0002054228DF817008DF894
:103CC0001670FDF74BFE01FB02810866C2218DF8DC
:103CD0001310010E8DF81A10010C000A8DF819103E
:103CE0008DF818000DF1130340465146FDF7CEFD47
:103CF000002591E40020062FF4D8791CE8550F46E2
:103D0000F9E7681C0021072803D80AF800100130E1
:103D1000F9E70DF1130340460221FDF7B7FDFDF76A
:103D20007CFDC5F1070180F86910E1E7210000087A
:103D3000C51B0008B0B5D0F820130446884794F896
:103D4000D20150B120460121FEF72FFAD4F82413F6
:103D50000546204688472846B0BD0020B0BDB0B516
:103D600004460025E9B2042988BFB0BD204600F012
:103D700002F80135F6E77CB50026002200230C4648
:103D80000546CDE90066FEF7CBFC5420002104FB7C
:103D900000503C30202902D046540131FAE754202B
:103DA000002104FB0050C16280F829107CBD000096
:103DB0002DE9FF47054690F8D201002879D00C463E
:103DC00001EBC100A96811F81000C00771D1696941
:103DD00068680026098921448FB250F8370080694D
:103DE0000068002866D40DF1040828462146039691
:103DF000CDE901664246FEF7E4FA00285AD1D5F82B
:103E000008A004EBC409BDF804100AEB4906F088C9
:103E100088420DD1707A9DF80710884208D106F1CA
:103E20000A0008F104010822FCF7A0F9002840D09C
:103E3000686850F83700816B806D0788B1F80080A2
:103E40009FB1B6F90200FCF7A5FA00201B4A2146F3
:103E500000904FF47A7007FB00F32846FDF726FF29
:103E6000D5F808A00AEB49014880B8F1000F19D035
:103E70000AEB4900B0F90400FCF78CFA0020104A64
:103E800021460090642008FB00F32846FDF70EFF52
:103E9000A96811F8192042F0010201F8192001EB7C
:103EA0004901888001AA2846214600F00EF8012623
:103EB00000E00026304604B0BDE8F087751A00081F
:103EC0008F1A00080021FEF770B9B0B5054601EB66
:103ED000C1001446A96801EB400011460C220630CF
:103EE000FCF720F9D5F834032146BDE8B040FEF7D1
:103EF00019BBBFB590F8CC417F2C01D0052C15D152
:103F0000446901290BD1218881B111448269128849
:103F100091420BD8426852F83110896A0CE06188EE
:103F200021B1114482695288914201D9FF2018E0E1
:103F3000426852F8311089690968ADF804104FF4ED
:103F40000061ADF80610002101AA082904D05D5CCB
:103F5000541801312571F8E7D0F8340301A9FEF7B0
:103F6000E1FA04B0B0BDBCB5069C8DF801301B0A67
:103F70008DF802306B468DF8034080248DF80040A8
:103F8000079C250E8DF804408DF80750250C240A57
:103F90008DF806508DF80540FFF7ABFFBCBDB0B5FE
:103FA000044600F006F805462046FFF7C3FE284603
:103FB000B0BDF8B50021ADF80610D0F81813D0F850
:103FC00034030968ADF8041001A9FEF7ABFA04B098
:103FD00080BD00004AB2012AC0F28B802DE9F04F6B
:103FE000D0F814E0BEF80020CAB1D0E9005353F86D
:103FF00032302C789A6904F5C0671668BE4211BF4A
:10400000FF2C01F5C06414602C7804F5B0659A6A41
:104010001368AB4212BFFF2C01F5B0631360BEF80A
:1040200004A0D0F818C0BAF1000F26D0BCF8049054
:104030004FF0000B0FF2BC08BBF1030F1DD81FFAA5
:104040008AF24A4519D8D0E9005458F82B300AF1C1
:10405000010A0BF1010B54F832202F789269DE1916
:10406000156825F06044B44211BFFF2F05F060448D
:104070000B44234308BF1360DEE7BEF80880B8F1A5
:10408000000F26D0BCF808E04FF000090FF2740CC6
:10409000B9F1030F1DD81FFA88F7774519D8D0E971
:1040A00000325CF8296008F1010809F1010952F8B1
:1040B00037201D78976974193B6823F06042A2424B
:1040C00011BFFF2D03F0604273181A4308BF3A6016
:1040D000DEE7D0F8682300680378146803F18005F0
:1040E000AC4212BFFF2B01F1800313600170BDE8E9
:1040F000F04F7047000200000003000000040000C1
:104100000005000080010000800200008003000024
:10411000800400001CB5044690F8CC0188423AD0D7
:104120007F2911D004291BD0052926D0B1BB00203E
:1041300084F8CC011C48FDF7D2FA6946FDF71BFB59
:10414000D4F8D411204688477F2084F8CC01174842
:10415000FDF7C5FA6946FDF70EFBD4F8D81118E053
:10416000E0B1042084F8CC010D48FDF7B8FA6946A7
:10417000FDF701FBD4F8E0110BE078B1052084F8DD
:10418000CC010848FDF7ABFA6946FDF7F4FAD4F81C
:10419000DC112046884794F8CC011CBDFF201CBDD3
:1041A000BB430008B4430008A6430008AD43000821
:1041B00070B54FF6FF71084A091A0848D2E9003471
:1041C00005686E6A6962F31A2344C2E90013BDE808
:1041D0007040FDF7B7B800BF54140020C41700208A
:1041E000F8B501680022D0F8340309788DF808206A
:1041F0004FF48072ADF8062001F5E061ADF80410CF
:1042000001A9FEF78FF904B080BD0000BCB50446DB
:10421000B0F814034FF6FF71884202D0204600F038
:1042200025F8104D204641F2050100222B46FDF7EE
:10423000B5FC204641F2060100222B46FDF7AEFCFC
:10424000D4F81803C07840060BD5D4F81C030368D3
:104250003BB1054A204600210093FDF727FDA4F855
:104260001403BCBDFB1900085D1E000810B541F227
:104270000501002200230446FDF790FC204641F290
:10428000060100220023FDF789FCB4F91403FCF7B2
:1042900081F8A4F8140310BDB0B50D464978044662
:1042A00090F8CE0121B158B9012084F8CE0107E081
:1042B000012805D1002084F8CE012046FFF74FFDEC
:1042C000E97894F8D00139B170B9012084F8D001AF
:1042D0002046FFF79BFF07E0012805D1002084F866
:1042E000D0012046FFF7C2FF297994F8D10139B1F6
:1042F00070B9012084F8D1012046FEF757FA07E093
:10430000012805D1002084F8D1012046FEF757FA94
:10431000A97894F8CF0139B170B9012084F8CF01A0
:104320002046FEF717F907E0012805D1002084F8A0
:10433000CF012046FEF71EF9697994F8D20139B110
:1043400070B9012084F8D2012046FDF7B5FB07E0E3
:10435000012805D1002084F8D2012046FDF7D6FBC4
:10436000297894F8CD0121B168B9012084F8CD01F4
:10437000B0BD012807D1002084F8CD012046BDE85A
:10438000B040FFF72DBFB0BD02E008C8121F08C142
:10439000002AFAD170477047002001E001C1121FC6
:1043A000002AFBD17047010000000000000001015D
:1043B00001010001000101010101000000000001F4
:1043C00000010000000000000000010203040607D5
:1043D000080917000500000006000A000E00120080
:1043E00001000500000009000D001100150000008B
:1043F000A003002001000010B00300200100011004
:10440000C003002080001010C00B00200100171016
:10441000D00B002005001810200C00200300001213
:10442000500C002007000014C00C002007000114ED
:10443000300D002007000214A00D00200700031417
:10444000100E002002000016300E00200900011698
:10445000C00E002009000216500F002009000316AC
:10446000E00F00200700001850100020070001187E
:10447000C0100020070002183011002007000318A8
:10448000A01100200200001AC01100200900011A2A
:10449000501200200900021AE01200200900031A3D
:1044A0007013002001000020C84400080000002014
:1044B00028140000AC010008E84800082814002077
:1044C000B014000098430008320132104BFFFF0483
:1044D0001370141420F04314088013422013B320E7
:1044E0001B08D4101AE2041AD2041AE004132D1E79
:1044F000024C08297801FF0155720F138B211B080C
:104500009B041A8F0413BD23820813751414208C86
:10451000161B20720813E0132420FFFF1A89240AB7
:10452000270F0101561AFF011A8D881A8C981A8ECE
:1045300004018023FFFF1A84881A88041A99981AA4
:1045400095041A91041A93048113351D8C08BF2316
:104550001002100119111A74401A80041A7C040BFD
:1045600020DC13D81A976023020732041A783441EA
:104570004B02055C2944A9106AC85059305A902052
:104580006910DA9810DA9410DA9C10CB2C1510DA36
:104590005810DA8410DAB010DADC10CB081610DA12
:1045A0003410DA6010DAA090DACC10DAF810DA10F1
:1045B00070DA1410DA1810DA1C10DA2010DA24106D
:1045C000DA2810DA3010DA3410DA3810DA3C10DA7F
:1045D0004010DA4410DA4810DA4C10DA5010DA548D
:1045E00010DA5C10DA6010DA6410DA6810DA6C1035
:1045F000DA7010DA7410DA7810DA7C10DA8010DAF7
:104600008810DA8C10DA9010DA9410DA9810DA9CAC
:1046100010DAA010DAA410DAA810DAAC10DAB410AC
:10462000DAB810DABC10DAC010DAC410DAC810DA5E
:10463000CC10DAD010DAD410DAD810DAE010DAE4DC
:1046400010DAE810DAEC10DAF010DAF410DAF81018
:10465000DAFC1011CA1610DA0410DA0C10DA101095
:10466000DA1410DA1810DA1C10DA2010DA2410DA52
:104670002810DA2C10DA3010DA3810DA3C10DA4070
:1046800010DA4410DA4810DA4C10DA5010DA54100C
:10469000DA5810DA5C10DA6410DA6810DA6C10DAC2
:1046A0007010DA7410DA7810DA7C10DA8010DA849C
:1046B00010DA8810CBA41410DAA810DAAC10DAB033
:1046C00010DAB410DAB810DABC10DAC010DAC4109C
:1046D000DAC810DAD010DAD410DAD810DADC10DA4E
:1046E000E010DAE410DAE810DAEC10DAF010DAF4BC
:1046F00010DAFC1011CA1510DA0410DA08105A0C7E
:10470000102304062A02B04A131023020532016A5C
:10471000C9105930CB9C1610DA9010DA94106A98B0
:10472000105950DACA50DAE410DAE8805ACB10692E
:10473000B06AEC1059205AA7601159C06AA41059E8
:1047400020DAA020DAA220DAA6A0DACC70DAF070A3
:10475000DAAF50DAAC50DAA820DAAA20DAAE70DA92
:10476000CD70DAF470DAB750DAB450DAB020DAB2D9
:1047700020DAB670DACE70DAF870DABF50DABC50F0
:10478000DAB820DABA20DABE10DACF70DAC020DA6E
:10479000D0206AC4205910DAC810DACC10DAD01050
:1047A000DAD410DAD810DADC10DAE090DAD190DA64
:1047B000E430DAE810DAEC10DAF010DAF410DAF8B3
:1047C00010DAFC1011CA1790DAD2906A042059103E
:1047D000DA0810DA0C10DA1010DA1410DA1810DA1D
:1047E0001C105A20105A0290DAD3906AFC105920FB
:1047F0005B0214101A060C41691059206A24605992
:1048000020DA26F0DA2870DAD470DA0450DA087088
:10481000DA2C50DA2970DA2A20DA2E70DAD570DA3A
:104820000C70DA1070DA3250DA2F70DA3020DA34A5
:1048300070DAD670DA1470DA1870DA3850DA357047
:10484000DA3620DA3A10DAD770DA1C70DAD8206A51
:104850003C405910DA4010DA4410DA4810DA4C10B3
:10486000DA5010DA5410DA58B0DAD990DA5C30DA6B
:104870006010DA6410DA6810DA6C10DA7010DA742A
:1048800010DA7890DADA90DA7C30DA8010DA841094
:10489000DA8810DA8C10DA9010DA9410DA98905BDB
:1048A000D01810111AFF01E10932121D7F0402060F
:1048B000016D010808080811328033E8031A06E088
:1048C00019781132022910299119101A808914D0EF
:1048D00007FF1A801829131A801C3908190529089E
:0848E000220812205324F40009
:04000005080000ED02
:00000001FF
