:020000040800F2
:10000000D828002001010008B7160008A315000831
:10001000B5160008030200080920000800000000CF
:10002000000000000000000000000000011C0008AB
:100030009103000800000000B11A0008B91D000873
:100040001B0100081B0100081B0100081B01000820
:100050001B0100081B0100081B0100081B01000810
:100060001B0100081B0100081B0100081B01000800
:100070001B0100081B0100081B0100081B010008F0
:100080001B0100081B0100081B0100081B010008E0
:10009000FD1F0008050200081B0100081B010008E5
:1000A0001B0100081B0100081B0100081B010008C0
:1000B0001B0100081B010008251E00081B01000889
:1000C0001B0100081B0100081B0100081B010008A0
:1000D0001B0100081B0100081B0100081B01000890
:1000E0001B0100081B0100081B010008DFF80CD0F1
:1000F00000F04AF8004800476D270008D828002083
:100100000648804706480047FEE7FEE7FEE7FEE7B1
:10011000FEE7FEE7FEE7FEE7FEE7FEE7231E000838
:10012000ED00000840EA01039B0703D009E008C97D
:10013000121F08C0042AFAD203E011F8013B00F8AC
:10014000013B521EF9D27047D2B201E000F8012BF8
:10015000491EFBD270470022F6E710B513460A4647
:1001600004461946FFF7F0FF204610BD30B504469F
:100170000020034600E05B1C934203D2E05CCD5CB0
:10018000401BF8D030BD0000064C074D06E0E0688B
:1001900040F0010394E8070098471034AC42F6D3CE
:1001A000FFF7A8FF444500086445000870B58C18A7
:1001B00010F8015B15F0070301D110F8013B2A117B
:1001C00006D110F8012B03E010F8016B01F8016B68
:1001D0005B1EF9D12B0705D40023521E0DD401F864
:1001E000013BFAE710F8013BCB1A921C03E013F82D
:1001F000015B01F8015B521EF9D5A142D8D3002062
:1002000070BDFEE7224800F059BA00BFB0B58AB011
:10021000012500206C4614210795CDE905002046F4
:10022000FFF799FF0E202146CDE90850184800F04D
:100230005DF900B1FEE7164800F02DFC00B1FEE7C5
:100240001348022100F0F6F800B1FEE70AB0B0BD95
:10025000FFF7DCBF10B588B00C46CDE904320021B1
:1002600001900B48039101A907AB224600F0F5F875
:1002700008B101200AE0064C204600F00BFA0328E2
:1002800003D0012000F034FCF6E7002008B010BDD8
:100290009C1700200A460E49884218BF7047D06854
:1002A00021F8040F5089C870107A8870D2E90002D2
:1002B000C1E90102074802F0A1B800BF044805499E
:1002C0000122016102600448C1F8342301F064BDD9
:1002D0005C14002010000020A515000810B5D0E91E
:1002E0007C234FF6FF7423F8114002EB81010123B8
:1002F0008978421882F80432D0F80022BDE8104014
:1003000010472DE9F0470A9CDDE908974FF0FF3CC4
:100310004FF0FF3E4FF0FF08002C08BF4FF0010EDA
:10032000002B08BF4FF0010CC4B27CB3BD1A0E788D
:100330006DB26B4226FA03F3002DC8BF06FA05F32F
:10034000FEB2002DC6F1080728FA07FAD8BFC2F19D
:100350000807FDB2A54288BF25462A44AF1999F87F
:10036000006008FA07F444EA0A04A3433440234334
:1003700089F8003017F0F8031CBFF1440027D3B20E
:10038000072B84BF61440022401BCDE7BDE8F08706
:1003900070470000411C4FF6FF710FD010B5084A9E
:1003A00083B214889C4201D1431E1380054A00EB9E
:1003B0004000002302F83030BDE8104008B270471A
:1003C0000800002010180020EFF3108072B6FEE73E
:1003D000F8B50446D0F88C02008820B30025012629
:1003E000802D26D0671997F804020F2819D02068AD
:1003F0000078854215D097F8940258B9D4F888222D
:100400002AB1E9B22046904797F8940200E0002014
:1004100087F804620138E9B287F89402204602F0B6
:10042000BDF90135DCE7B4F98402FFF7B3FFA4F8A6
:100430008402F8BD90F82020013A012A04D800680F
:1004400000F11402002004E000F1240201204FF426
:100450008021136819431160704770B590F82060CF
:100460000468013EA568012E0CD815F0E05F0CD0A1
:10047000C5F30165032D0ED100F1240101204FF4D5
:1004800000022FE001F017FA2CE000F12401012016
:100490004FF4001226E00120A8401860886818B1C7
:1004A0004B6840EAC30301E00868430504EB05100C
:1004B000D1E903452343C0F88031C0F88451097D58
:1004C000012905D100F5C2710B6843F480730B60FC
:1004D0005168C0F88C1111680122C0F8881100F52C
:1004E000C07100200B681A430A6070BDF0B5026845
:1004F00090F82030013B012B24D8D2F800020123D0
:1005000040F00100C2F800024C69CD6904F01F0000
:1005100003FA00F0D2F81C328343C2F81C32C34302
:10052000012D15D05DBBD2F80C521D40C2F80C5203
:1005300002EBC405CE688F8847EA0646C5F84062DC
:100540000D4614E0416A41F4802141620120F0BD72
:10055000D2F80C520543C2F80C5202EBC4050E68E7
:100560008F8847EA0646C5F8406201F10C058E689F
:100570002D8802EBC40445EA0645C4F84452D2F87B
:1005800004428F690E69096A44EA0005002F08BF1A
:1005900004EA0305C2F80452002ED2F8144244EAD9
:1005A000000508BF04EA03050129C2F8145204D16A
:1005B000D2F81C120843C2F81C02D2F8000220F044
:1005C0000100C2F800020020F0BD704770B590F83D
:1005D0002040013C012C03D8046821B1256903E0C7
:1005E00001F069F952E0E568AD070ED004EB0114A3
:1005F000D4F8B05115F00405956004F5D875D4F819
:10060000B06108D1760D166007E000F124010120E9
:100610004FF400123AE0F60856602D6805F0020526
:10062000D560D4F8B45105F00F051561D4F8B45174
:10063000C5F307259561D4F8B4512D0C5561D4F854
:10064000B8211A7001F055F8120A5A7001F051F8E9
:10065000120C9A7001F04DF8120EDA7001F02CF8BD
:100660001A7101F029F8120A5A7101F025F8120CDA
:100670009A7101F021F8120EDA71006811B100F1DF
:10068000100101E000F10C01002020220B681A4348
:100690000A6070BD90F82010013901290CD800685B
:1006A000816882688068C1F38061C2F3C062C0F370
:1006B0000070114408447047002070472DE9F84F3E
:1006C000044600684669D0F804908768D0F80CB0FA
:1006D000D0F810A0D0F81880F10701D1002545E02E
:1006E000F9070FD001218160B80708D4780720D41A
:1006F000380700F1B980204600F0F3F902E0204607
:1007000000F0F0F90025F80518D520684FF4807145
:100710008160B80509D478050ED438054EBF05F5BB
:100720008045204600F0DFF908E0204600F0DCF9C3
:1007300004E04FF40065E6E705F50055F80315D52C
:1007400020684FF480318160B80309D478030BD45A
:1007500038034EBF05F58035204600F0C6F905E0A8
:10076000204600F0C3F901E005F50045300748BF19
:100770005FEACB6050D4700748BF5FEA0B7051D47A
:10078000B00706D52068C068800702D0204600F078
:1007900051F9700648BF5FEACA604AD4B00648BF44
:1007A0005FEA0A704BD4F00606D52068006980071E
:1007B00002D0204600F06DF9B00348BF5FEAC9607F
:1007C00044D4F00348BF5FEA097046D4300464D5CE
:1007D0005FEA49705ED5C6F30021F005023101EAF7
:1007E0000801B20558BF08EAD071720508F004008C
:1007F00048BF01440D4330054CD518F0700049D076
:1008000010380009052840D8DFE800F003313437FC
:100810003A3D45F0080538E02068102145F40075A0
:10082000C160A8E720680821C160204600F000F9F7
:10083000A6E72068102145F480650161AEE72068D5
:1008400008210161204600F023F9ACE7206810215F
:100850004160204600F01EF9B3E72068082141609E
:10086000204600F044F9B1E74FF480554BE745F0DE
:1008700010050AE045F0200507E045F0400504E0DA
:1008800045F0800501E045F480752068816921F01C
:10089000700181612068042141603DB1606A284394
:1008A00060622046BDE8F84FFFF78FBEBDE8F88FC5
:1008B00070B598B1044690F8200010B9204600F0B9
:1008C00065F800F095FF054620684168C90707D123
:1008D00000F0F2F9401B0B28F6D311E0012070BDA7
:1008E000016821F00201016000F0E6F90546206888
:1008F000416889070BD500F0DFF9401B0B28F6D3C0
:10090000606A052140F40030606201203AE0217EF7
:10091000026822F08002012908BF80320260617EF5
:10092000026822F04002012908BF40320260A17E25
:10093000026822F02002012908BF20320260E17E15
:10094000026822F01002012918BF10320260217FD4
:10095000026822F00802012908BF08320260617FA4
:10096000026822F00402012908BF04320260261D39
:100970006ECE1A432A43013932431143C16100202C
:100980000121606284F8201070BD0000B0B586B00F
:1009900000213D4ACDE90411CDE9021100689042E1
:1009A0003FD1F148C24C426842F000724260426856
:1009B00002F000720192019A026842F0080202609D
:1009C000006800F0080001904FF48070CDE9031139
:1009D0000290019802AD2046294600F099F80320C4
:1009E00029460590022003904FF4007002902046A3
:1009F00000F08EF8DD480C4A016811400B4A1143A3
:100A0000002201601420022100F0BEF9142000F041
:100A1000AFF915200221002200F0B6F9152000F0F0
:100A2000A7F906B0B0BD00BFFF9FFFF80040000768
:100A300070470000BCB5134D044600201249CDE9B3
:100A40000000C5E900002068884216D105F11002B7
:100A50006B4620460021FFF7B9FD70B9286A694648
:100A6000688128466A89FFF75DFB2869E969E860C3
:100A7000064829722946FFF70DFC20460221FFF7A0
:100A8000D9FCBCBD28140020006400405C14002088
:100A9000704770477047B0B5044690F820000128B1
:100AA00016D1022084F820002068016821F001019D
:100AB000016000F001F9054620684068C0070DD0CC
:100AC00000F0FAF8401B0B28F6D300F0D9FE03E043
:100AD000606A40F4002060620120B0BD00206062C6
:100AE000B0BD704770477047704770477047704798
:100AF000B0B5044600F0E0F805468C48611C00786B
:100B000018BF044400F0D8F8401BA042FAD3B0BD8F
:100B10002DE9FC4F5C4A04234FF0000B4FF0010815
:100B20004FF00F0E4FF00009904208BF03230093CF
:100B300000250B6833FA05F208BFBDE8FC8F08FA00
:100B400005F2134200F09B804F68032F16D9112F36
:100B500024D0122F26D04F4B9F4213D04E4B9F4292
:100B600010D04E4B9F420DD04D4B9F420AD04D4B63
:100B70009F4207D04C4B9F4204D020E0DFE807F0B3
:100B80000216191D8B6833B1012B14BF426102613B
:100B90004FF0080913E04FF0040910E0CB6803F1AF
:100BA00004090CE0CB6803F10C0908E0D1F80C90C3
:100BB00005E0CB6803F1080901E04FF000095B464E
:100BC0000646082D28BF203B28BF043637680EFA9A
:100BD00003F409FA03F327EA040423433360CB79CF
:100BE000DB064CD5604C294E0BF00C0C2368A6F5A7
:100BF0007E7643F001032360236803F00103019331
:100C00000EFA0CF3019CAC0856F8247027EA030A8C
:100C1000264B984208D0264B984207D0254B984245
:100C2000009B08BF022302E0002300E0012303FA37
:100C30000CF343EA0A0346F82430144C4F68FB03D4
:100C400002D42368934301E0236813432360BB036A
:100C500002D46368934301E0636813436360FB025B
:100C600002D4A368934301E0A3681343A360084C34
:100C7000BB02236854BF23EA02021A4322600BF12D
:100C8000040B013555E700BF00140140000401408A
:100C90000C0401400000111000001210000021108F
:100CA0000000221000003110000032100008014046
:100CB000000C01400010014005480068704700BF6B
:100CC0001A48034900780A6810440860704700BF5A
:100CD000D418002080B58E48016841F010010160F1
:100CE000032000F06DF8002000F004F800F020F878
:100CF000002080BD70B50D4E04464FF47A713078F7
:100D0000B1FBF0F084490968B1FBF0F000F0B0FAF3
:100D100001250F2C08D838B94FF0FF3021460022AA
:100D2000002500F031F87460284670BD00000020F6
:100D300082B00D480222016841F0010101600168A2
:100D400001F0010101910199416841F08051416038
:100D5000406800F08050009000980448016862F3F9
:100D60001A61016002B0704718100240040001408F
:100D7000002806D4734600F0CAFC9E46014A42F899
:100D80002010704700E100E070B5134B4FF0FF35C5
:100D90001B68C3F30223DC1E83F0070338BF002463
:100DA00005FA04F6B243042B28BF042305FA03F323
:100DB0009943A1401143BDE8704001F027B900BF3D
:100DC00005494FF6FF030A681A4060F30A220348F8
:100DD00010430860704700BF0CED00E00000FA050A
:100DE0002DE9F84300286CD0884649490446086834
:100DF00000F0070040450AD2086820F0070040EAEA
:100E000008000860086800F00700404559D12068D4
:100E1000504B8946810711D5410703D5196841F424
:100E2000E0611960010703D5196841F46051196048
:100E3000A1681A6822F0F00211431960C00737D187
:100E4000D9F8000000F0070040450DD9D9F800009E
:100E500020F0070040EA0800C9F80000D9F80000B7
:100E600000F0070040452CD12068410705D5E16816
:100E70001A6822F4E06211431960000706D5206960
:100E8000196821F4605141EAC00018601C4600F066
:100E900047F821681F4AC1F30311515CC840F24969
:100EA00008601E480068FFF725FF0020BDE8F883B2
:100EB0006068022808D0012825D153F8041C890352
:100EC00006D40120BDE8F88353F8041C8901F8D545
:100ED00019681D4621F0030108431860FFF7ECFE76
:100EE000064641F28837606829682B4601F00C01FC
:100EF000B1EB800FA4D0FFF7DFFE801BB842F2D920
:100F00000320BDE8F88353F8041C8907D9D5DFE72F
:100F1000002002405E44000820140020040000204D
:100F200010B50C490C480A6802F00C03082B07D1D5
:100F3000C2F3834309A4D203E35C02D40C485843B0
:100F400010BD096809A25843C1F34041515CB0FB90
:100F5000F1F010BD0410024000127A0002030405F3
:100F6000060708090A0B0C0D0E0F101001020000F5
:100F700000093D002DE9FC41002800F09C8004465A
:100F80000078B74EC0071FD0706800F00C0004282E
:100F900014D000F034FC02D17068C0030ED4606835
:100FA000002800F01481B0F5A02F00F02181B0F5E9
:100FB000803F00F0218100F085FB20E13068800354
:100FC00002D56068002876D02078800716D5706832
:100FD00010F00C0F05D000F012FC24D17068C00393
:100FE00021D43068800702D52069012863D1606967
:100FF000316821F0F80141EAC00030602078000734
:1010000041D5A06910B397480121C0F88014FFF7BB
:1010100053FE0546706A800728D4FFF74DFE401B3B
:101020000228F7D9F8E021698E48002900F08E8067
:1010300001210160FFF740FE054630688007D6D4E5
:10104000FFF73AFE401B0228F7D9E5E0854800216A
:10105000C0F88014FFF730FE0546706A800712D58D
:10106000FFF72AFE401B0228F7D9D5E07E484FF44F
:10107000FA510068B0FBF1F0019000BF0198411EE9
:1010800000280191F9D12078400717D4E7697FB192
:1010900000F0B5FB3CD1012F0DD0216A706800F43F
:1010A00080328A4207D1616A00F47010884202D10E
:1010B0000020BDE8FC810120BDE8FC81F06910F052
:1010C000805808D1F06940F08050F061F06900F07C
:1010D000805000900098654F3868C0050FD438687C
:1010E00040F480703860FFF7E7FD05463868C005BA
:1010F00005D4FFF7E1FD401B6428F7D98CE0E068D8
:10110000A0B3052844D0012846D000F0F8FA46E004
:101110005449002088460866FFF7CEFD0546022F99
:101120000AD147463068800179D5FFF7C5FD411BDC
:1011300003200229F6D9BCE730688001B8D5FFF753
:10114000BBFD411B03200229F6D9B2E70021016053
:10115000FFF7B2FD0546306880077FF54FAFFFF718
:10116000ABFD411B03200229F5D9A2E700F0C7FA25
:101170003062FFF7A1FD054641F28837306A8007EB
:101180001CD5FFF799FD411B0320B942F6D990E722
:10119000306A40F004003062306A40F00100306292
:1011A000FFF78AFD054641F28837306A800705D48B
:1011B000FFF782FD401BB842F7D92DE0B8F1000FD0
:1011C0007FF464AFF06920F08050F0615EE700F0DA
:1011D00079FA3060FFF770FD0546306880037FF5CF
:1011E000F3AEFFF769FD411B03206429F5D960E7E1
:1011F000306840F480203060306840F480303060E7
:10120000FFF75AFD0546306880033FF5DDAEFFF776
:1012100053FD401B6428F6D90320BDE8FC81206AF9
:10122000B0F5803F05D1A168726822F40032114305
:101230007160616A0843716821F474110843706039
:1012400001203866FFF738FD0446306880013FF51D
:101250002FAFFFF731FD011B03200229F5D928E745
:1012600000100240000042422014002000700040A4
:10127000411E0020B0EB116F01D001207047044ADD
:10128000F023516003490B70072190601160704793
:1012900010E000E023ED00E07047704710B590F8D3
:1012A0003C300222012B23D080F83D20012280F81F
:1012B0003C2002680B68546824F070041C43936857
:1012C000B2F1804F546008D0334CA24205D0334C69
:1012D000A24202D0F64CA24204D1496823F0800316
:1012E000194391600022012180F83C2080F83D10D4
:1012F000104610BD58B110B500F0ECFA03D100F063
:10130000ABFA00F007F800F001FB00F007BA01208B
:1013100070470000E0B50068E549884218BF8CBD01
:1013200009480022016841F00401016001210068C0
:1013300000F00400019001981E20FFF725FD1E20FB
:10134000BDE88C40FFF714BD1C10024090F83D1022
:1013500001291ED1022180F83D100068C168B0F15A
:10136000804F41F00101C16008D00B49884205D08F
:101370000A49884202D0CE49884204D1724600F020
:10138000EFF9964603D0724600F0D4FA9646002054
:1013900070470120704700BF00040040002C01404E
:1013A000B0B500F091FA1DD084F83D0001204FF651
:1013B000777584F83C002068024652F8083FAB433A
:1013C00013600B682BB1102B03D0202B18BF302BD0
:1013D00009D1106820F07000184340F00700106039
:1013E00000F08DFAB0BD402B0DD0502B15D0602BE6
:1013F0001DD0B3F5005F27D0702BF1D100F011FAAA
:1014000040F07700EBE700F090FA226852F8080FFE
:1014100040F0470020F03000E1E700F086FA226853
:1014200052F8080F40F0570020F02000D7E74B6833
:10143000CA68194600F045FD226852F8080F40F0CE
:10144000670020F01000CAE700F0EBF940F480409C
:10145000C5E7704710B5044600680169890714D5CF
:10146000C168890711D56FF002010161012121775F
:101470008069800702D000F039FA03E000F03CFAFE
:1014800000F031FA0020207720680169490715D55E
:10149000C168490712D56FF004010161022121776B
:1014A000806910F4407F02D000F020FA03E000F0E1
:1014B00023FA00F018FA0020207720680169090754
:1014C00014D5C168090711D56FF008010161042125
:1014D0002177C069800702D000F008FA03E000F02D
:1014E0000BFA00F000FA0020207720680169C90695
:1014F00015D5C168C90612D56FF010010161082128
:101500002177C06910F4407F02D000F0EFF903E0CA
:1015100000F0F2F900F0E7F9002020772068016977
:10152000C90709D0C168C90706D06FF00101016180
:10153000204600F02DF820680169090609D5C16828
:10154000090606D56FF0800101612046FFF7A4FE71
:1015500020680169490609D5C168490606D56FF0BA
:1015600040010161204600F01BF8206801698906EE
:1015700002D5C168890600D410BD6FF02001016159
:101580002046BDE81040FFF788BE70477047000056
:1015900000684749884208BF00F0A4BC704700BFFC
:1015A0007047FEE710B5074C2178206902F04EFD28
:1015B0002069002102F0EAFD03487F21BDE81040C8
:1015C00002F0E4BD5C14002010000020B0B50C480F
:1015D0000C4D042400214FF4E0024FF40023C0E935
:1015E0000054C0E90211C0E9043281618183FFF730
:1015F0005FF918B1BDE8B040FEF7E6BEB0BD00BF70
:101600009C1700200064004083B00F48016841F03F
:1016100020010160016801F0200102910299016836
:1016200041F004010160016801F004010191019998
:10163000016841F008010160006800F008000090B6
:10164000009803B0704700BF1810024010B586B074
:101650001648174C00214FF6FF724723CDE90411BD
:10166000CDE90211CDE900118161C0E90043C0E973
:1016700002120161FFF73EFE08B1FEF7A5FE4FF42E
:1016800080500290094802A9FFF78AFE08B1FEF7D0
:101690009BFE00206946CDE900000448FFF7FEFDEF
:1016A00008B1FEF791FE06B010BD00BFC4170020C0
:1016B00000080040FEE7FEE7026802EB0112D2F8E4
:1016C000BC217047306820F480303060306820F4EE
:1016D00080207047A16801EB46014880B1F9040001
:1016E000FEF758BE542001FB00807047204602F0F0
:1016F00021BE026802EB0112D2F8B8217047306AAD
:1017000020F001003062306A20F00400704700F0E1
:101710001F010122400902FA01F17047012084F8FB
:10172000460084F83E0084F83F0084F8400084F8C6
:10173000410084F8420084F8430084F8440084F8AF
:10174000450084F83D00002010BDB0F90200FEF70E
:1017500021BE0DF1130100228DF813000120704706
:10176000816801F00701062970474046514600F0A4
:10177000FABE99F8056099F8065099F807700028A4
:1017800046EA052B7047072009F1050320EA5202BB
:10179000404600F019BAB0F94C00FEF7FBBD99F8CD
:1017A0000410C1F3800180F85C1099F804108907D7
:1017B0007047224602F0DABB08F12806542770472A
:1017C0000DF113018DF813000120704754254FF6D9
:1017D000FF7301FB0580B0F87400984270479DF8D4
:1017E0001B10542001FB008090F82A30022B704718
:1017F0002068016841F001010160FFF75DBA70687F
:1018000000F00C0008287047A2F84C0099F804205A
:101810007047542001FB008090F82B3090F8326024
:101820007047D1E90103C968184340EA01201168F3
:1018300021F47F41084310601068704709F10503E7
:101840004046072200F0C0B99DF81B10542201FB4E
:10185000028292F82A207047002084F83C0020463B
:101860007047404600F008BF404621465246704748
:10187000CDE90010404621467047204602F0BCBA30
:10188000606A40F400306062052084F820007047F0
:101890009DF81B10542001FB008090F82A30032B88
:1018A00070478DF815508DF814607047451C404600
:1018B0002B4600F039BF00F1240101204FF48022B3
:1018C0007047404600F09EB990F83C200446022044
:1018D000012A7047044690F83D0000287047A2F89E
:1018E0004C00002070472046FFF750BE2046FFF70F
:1018F000B0BD00B2FEF74EBD2046FFF746BE002049
:10190000012184F83C0084F83D1070470220211D1D
:1019100084F83D00206800F08BBA9DF81B1054201D
:1019200001FB008090F82A2070474B68CA6819466E
:1019300000F0B6BA016841F0010101607047B0F8EB
:1019400074004FF6FF7398427047404600F0ECBEBB
:1019500080B502F0A9FC002080BD00001CB5044643
:10196000B0F9FC01FEF716FDA4F8FC01D4F8F8016B
:10197000008858B14FF47A71054A0023484300218A
:101980000090204600F03EF9A4F8FC0100201CBDA8
:10199000B31A000810B5044600F05AFF204600F0C4
:1019A0001BFF002010BD10B5D0F85C13097809B1F9
:1019B000002010BD90F85913002200239942F7D05F
:1019C000D0F8604344F823200133F7E7836801EB44
:1019D000C102C9B203EB42020023D3804FF6FF736A
:1019E000538002F025BA10B5836801EBC102C9B279
:1019F00013F8124004F0FE0403F8124003EB420215
:101A00004FF6FF739380BDE8104002F011BA00005A
:101A10002DE9F843044640690689DEB1A069DFF884
:101A200040904FF4C055E8460789B0B2B84211D88B
:101A3000D4F83833A9B2204642469847009931B9C4
:101A40000068C0F85C90C0F83C90C0F82C9001365B
:101A50000135EAE72046002100F053FBBDE8F8839A
:101A6000F51E00082DE9F843044640690589EDB1EB
:101A7000A0694FF000080027B0F80890A8B24845C8
:101A800014D8F9B2A06801EBC10600EB4600FFF7DD
:101A90005CFEFFF71FFEA1680135013701F81680D3
:101AA00001EB46018880A1F80680E7E7BDE8F883EE
:101AB00070471FB50446D0F8F801008898B1206837
:101AC0004FF480710078ADF8061094F8CC1100F551
:101AD000E0608DF80810ADF80400D4F8340301A9D3
:101AE00000F0C8FC1FBDB4F9FC01FEF753FCA4F8DC
:101AF000FC011FBDBCB51C46D0F83833154601AA01
:101B000098470146019800B1BCBD0A79AA42FBD9A9
:101B1000096801EB0511CC60BCBD00002DE9FC415A
:101B200004464069408890B30D46542105FB0147A7
:101B3000A16997F8282049881044884227D861680D
:101B4000144E3B8E51F8300097F82910806B90F8B6
:101B500000804FF6FF70A7F87400852087F82A00F0
:101B600097F83200CDE90006204602F039FA47F82E
:101B70002C6FFA6C2AB12046414690473868B04233
:101B800005D1E9B22046BDE8FC4102F035B9BDE817
:101B9000FC8100BF00000405BFB5542201FB020315
:101BA0001A4652F8341F09B9996B1160039193F8E2
:101BB0003220198E3C33012403ADCDE90054029448
:101BC00000F038FB04B0B0BDF0B5542401FB0401B3
:101BD000084650F8384FA518202D01D9FF20F0BD38
:101BE0000025EEB2964206D2A7199E5D01350F443C
:101BF00087F83C60F5E70168114401600020F0BD02
:101C0000704700002DE9F84FDFF8E8838146FA4F6E
:101C10009A4615460026B8F90000431C80B24FF6DC
:101C2000FF72072E2FD8B3422DDB0DB13A7812B1D7
:101C300018370136F3E7B342009102D10130A8F81A
:101C400000004FF6FF74A24538BF544600F076FC02
:101C50008346D8F80400B0EB0B0088BFA04206D939
:101C60000BEB0400C8F80400204602F0EFFA012054
:101C70000099324638700BEB0A00C7E90195C7E9B5
:101C800003100A98786110B2BDE8F88FA1F5A05052
:101C9000032826D9A1F5B05003282AD9A1F5C050B0
:101CA00003282ED9A1F5D050032832D9B1F5805F91
:101CB00037D0B1F5005F36D041F21000814234D008
:101CC00041F21700814232D041F21800814230D0F7
:101CD000B1F5905F2FD041F2010081422DD101205A
:101CE00046E00FF20601DFE800F0022C2E3006205D
:101CF0003EE00FF20601DFE800F0022A2C2E0A2057
:101D000036E00FF20601DFE800F002282A2C0E2050
:101D10002EE00FF20601DFE800F00226282A12204A
:101D200026E0002024E0162022E0022020E003200C
:101D30001EE004201CE005201AE01148106000207D
:101D40007047072014E0082012E0092010E00B2063
:101D50000EE00C200CE00D200AE00F2008E010201F
:101D600006E0112004E0132002E0142000E015201A
:101D700000211160014901EBC00070478C4400084C
:101D8000000002069F2803D1087808B10148704777
:101D90000020704730000906E0B5024604480021E3
:101DA00000230260002000900020FFF72BFF8CBD75
:101DB0000C18002002F030B9FEF782BFB0B590B029
:101DC00000241421CDE90B44CDE9094401A8FEF714
:101DD000C2F94FF4E0100225012108940F904FF44E
:101DE00080300D950A910E90CDE9061006A8FFF7F8
:101DF000C1F818B1EFF3108072B6FEE74FF48060BF
:101E000005940221CDE903400F20CDE9010501A889
:101E1000FEF7E6FF18B1EFF3108072B6FEE710B0E0
:101E2000B0BD70470148FFF715BB00BFC4170020C5
:101E300070B5184A0368904218BFB0F1804F22D1A4
:101E40004C6823F070032343904208D0B0F1804FD8
:101E500005D0114CA04202D0104CA04203D1CC6856
:101E600023F4407323434E6923F080030C688D688C
:101E7000334390420360C562846201D109691163F2
:101E80000121416170BD044CA042D9D0034CA04255
:101E9000D6D0DBE7002C01400008004000040040E1
:101EA00010B5036A046A24F001040462846924F012
:101EB000F00444EA0212826123F00A021143016233
:101EC00010BD036A23F010030362836923F4704397
:101ED00043EA0232036A826123F0A00242EA01115E
:101EE0000162704702480021C0E9001100F02CB8DF
:101EF0005414002070B5044690F8D20110B3052A9E
:101F000020D80120904010F02C0F1BD06369D4E939
:101F100001021B8900EBC300081AC0F3C70505EBDB
:101F2000C50602EB4600FFF710FCFFF7D3FBA168E4
:101F3000002201F8162001EB460188802046294640
:101F4000FFF744FD002070BD2DE9F84300F0F6FADC
:101F5000DFF8A090DFF8A08000274FF0020C4FF0D0
:101F6000030ED9F80410B9F9006008F110030A183B
:101F70004FF6FF713DB2B5421BDC13F8105CED0764
:101F800011D01D68954201D9AC1A08E05D686DB1A9
:101F9000B0FBF5F403F810EC6C43241A2C441C60DD
:101FA0008C4238BF214618330137E3E703F810CCE1
:101FB000F9E70846C9F8041002F048F908F10805E5
:101FC0000026B9F9000031B28142C8BFBDE8F883EC
:101FD00015F8080C810709D52A6800F0FD0005F8FE
:101FE000080C1AB1696855F8040C90471835013689
:101FF000E7E700BF08000020101800200148FEF7A6
:102000005DBB00BF9C170020FEE7704710B5074C72
:1020100000F00F03B0F1FF3F034A2344C8BF831809
:102020000801187010BD00BF00E400E014ED00E0EE
:102030002DE9F8431C46D0F8383315466A469847D0
:102040000646009808B1BDE8F8833079A84213D954
:102050000A9820B131682801085CC0070FD18CB103
:102060003068DDF8208000EB0510D8F800204168CA
:1020700091420BD9194826E0A348BDE8F8831648D9
:10208000BDE8F8834FF00060BDE8F883DDF82490E8
:10209000407889F80000306800EB0510D0E9017144
:1020A00020463A46FEF73EF899F8000009280ED17E
:1020B0003068D8F8001000EB05104068814206D95E
:1020C0000020791CE055C8F80010BDE8F883002016
:1020D000C8F80070BDE8F88301000106050004059A
:1020E0007047704770477047704770477047704738
:1020F0007047016A097801B170470021812200F020
:102100005CBB2DE9FE4F064690F8D201002800F096
:10211000888070694FF0000A0789002F00F08680E0
:10212000B0698946E846002405890320CDF808A057
:10213000CDE900AAB9B2A94273D800F00F000B286C
:1021400035D0052837D003286ED1706850F831108B
:10215000886902680B20002AECD4886AB9F1000F64
:10216000027846D0511EC9B2EF292BD8E1B2D6F879
:1021700008C001EBC1031CF8132001320CF8132036
:102180005FFA82FE027896451CD10CEB4300424672
:1021900080F800A03046CDF808A0CDE900AA00F0F4
:1021A000BCF800286FF0040008BF0520C2E7013723
:1021B00001340320BEE7E1B23046424601F0C2FEE0
:1021C0000B20B7E712B30B20FC2AB3D1E1B2B06801
:1021D00001EBC10B00EB4B00821D304600F09DF877
:1021E000B16811F81B2001EB4B01A8B102F0FE0011
:1021F00014E00B20FE2A9DD3E1B2B06801EBC101CF
:1022000010F81100C0074FF00B0093D1E1B2304637
:1022100001F00EFE0B208DE742F0010008700B204C
:1022200088E74FF0000A01E04FF0FF0A5046BDE892
:10223000FE8F00002DE9FE4F9846D0F83833144643
:1022400002AA0D46064698470746029808B1BDE81F
:10225000FE8F3879A04209D90D99386849B121011A
:10226000415C022905D12948BDE8FE8F2648BDE81A
:10227000FE8FDDF830A000EB0410D0F804B0DAF8DF
:102280000010594504D92248CAF800B0BDE8FE8FB5
:10229000C16890F80190726A0191484641469047A2
:1022A00000280290D3D13868DAF80020414600EBCC
:1022B00004108068FDF736FFB9F1090F09D1DAF88B
:1022C0000000584505D23968002201EB04118968E5
:1022D0000A54019BCAF800B033B130463946224651
:1022E000984700280290B2D139682001085C400765
:1022F00002D40020BDE8FE8FD6F83C333046294694
:1023000022469847BDE8FE8F11000906020001062B
:10231000100007067047002070472DE9F04F8DB080
:1023200047680890406900240DF1280B4FF0000A1F
:102330004FF00009059294700389408907EBC303AD
:1023400007EBC00553F8313055F831009B691E8802
:1023500013466FF3DF2616808668CDE90665CDE962
:102360000A4455F8310000EB091080690268D7B2C1
:102370007FB307EB0A08B8F1400F2AD80E46110CBC
:102380007A1E012505EBD2020992427809A8009035
:102390000DF1330001AB31C308985B46FFF748FEEF
:1023A00020B13146DDE90665002015E005990AF007
:1023B00007000022002301EBDA010431CDE900100F
:1023C000384659460294FDF79CFF3146DDE9066523
:1023D000C24609F10109012058B130788145BED3C8
:1023E000AAF10100012101EBD0000599C87000207D
:1023F00000E0FF200DB0BDE8F08F000010B50A88A6
:10240000D3090E2B35D8DFE803F0161D080808089D
:1024100008080808080F0F34260090F8D22142B3AC
:10242000BDE8104000F00EBB90F8CE210AB3BDE825
:10243000104000F039BC026A1278D2B1BDE81040F9
:1024400000F03BBA802A0DD190F8D01189B1BDE8D7
:10245000104001F0B1BC90F8D12152B1BDE810405C
:1024600000F078BA90F8CF211AB1BDE8104000F022
:1024700015BA10BD80B50A4A1269D2F834238242D7
:1024800001D0002080BD8B780888CA780431013BD8
:10249000B3FA83F35B095B00FDF7DCFEFF2080BD30
:1024A0005C140020B0B5064B41F203010022044643
:1024B0000025FFF71FFBD4F85C030570B0BD00BF1B
:1024C000A719000870472DE9FE4F1C460DF10B03BC
:1024D00015460E46074600F056F8DDE90C98012D2A
:1024E00008BF002818D0022D08BF002819D19DF878
:1024F0000B0007F1280A4FF0540B00FB0BA0FFF76D
:102500004AF99DF80B1001FB0BA1A1F84C008520A6
:10251000C1F80480887004E09DF80B10384601F083
:102520006BFC3846294632462346CDE9009801F037
:1025300057FD002818BFFF20BDE8FE8F0648074A58
:102540004FF6FF710068406AD2E90032984238BF06
:102550000844D11A08447047C417002054140020BE
:1025600000680078704710B529300023052B04D08F
:10257000447824B154300133F8E7FF2010BD1370C4
:102580000170002010BDB0B500F12A04002005281C
:102590000ED025784DB1852D07D014F8025C8D4200
:1025A00003D114F8015C954204D054340130EEE7B5
:1025B000FF20B0BD03B118700020B0BD2DE9FC4173
:1025C0001C4B41F21701002204464FF00008FFF7B0
:1025D00091FA1A4D4FF47A77002684F83083D4F8B4
:1025E000EC010078864213D2D4F8F00130F82600CE
:1025F00060B100FB07F3204631462A46CDF8008043
:10260000FFF700FBD4F8F41121F816000136E6E7D5
:10261000D4F8F801008858B14FF47A71064A00FBEB
:1026200001F3204600210093FFF7ECFAA4F8FC0127
:10263000BDE8FC815D190008B31A0008DD0200083E
:10264000B0B504460025D4F8EC01007885420BD2E1
:10265000D4F8F40130F91500FDF79CFED4F8F4111C
:1026600021F815000135EEE7B4F9FC01FDF792FE03
:10267000A4F8FC01B0BD00002DE9FC47DDF82C807A
:102680000746DDF828901D4692460E46A8F1020046
:1026900003280DD80020194A194B314600903846BE
:1026A000FFF7B0FA542106FB0171A1F8740008E0AD
:1026B000542006FB0074B4F97400FDF76BFEA4F817
:1026C00074005420002106FB007080F832900586CB
:1026D00080F828A0816780F8731080F85E10A0F859
:1026E0005C10C0E90D1180F82B1080F82A80C0E939
:1026F0001811C0F867100020BDE8FC871D1B0008FA
:10270000C0C62D0010B50446FFF758FF2046BDE8AF
:10271000104000F061B810B50446FFF791FF204665
:10272000BDE8104000F094B8F0B5542401FB040655
:10273000344654F8385FAF18202F02D8766BB74272
:1027400001D9FF20F0BD5427002601FB0700F1B29C
:10275000914206D26F180136074497F83C705F54D7
:10276000F5E72068104420600020F0BDFEF7B2FAC3
:10277000FFF724FBFEF748FFFEF728FFFEF766FF92
:10278000FDF766FDFDF79AFD034C207801302070BF
:102790000A20FEF7ADF9F8E7D0180020F8B50122BD
:1027A00001F5E061D0F83403ADF80620ADF804106F
:1027B00001A9FFF75FFE04B080BDF8B58DF80910E0
:1027C0004FF00071D0F834038DF80820019101A971
:1027D000FFF750FE04B080BDBCB51B4D41F20C01AB
:1027E000002204462B46FFF785F9204641F20D01F1
:1027F00000222B46FFF77EF9D4F88C02008810B334
:10280000D4F890120978F1B14FF47A710F4A00258B
:1028100000FB01F3204600210093FFF7F3F9A4F831
:102820008402802D0FD0601990F804120F2908D06F
:10283000216809788D4204D0D4F89012097880F884
:1028400094120135EDE7BCBD95190008D1030008CD
:1028500010B50446B0F98402FDF79CFDA4F884028B
:1028600010BD70B586B0202201230DF1130505922D
:10287000542201FB020494F83220218E05AECDE9EA
:102880000065CDE9023304F13C03FFF7D1FB18B931
:10289000059A0021C4E90D2106B070BDBCB5CA7807
:1028A000082A09D18B798A8831F8075BD0F88C43E4
:1028B000009105F07F01A047BCBDB0B5044690F87B
:1028C000CC01021F022A01D37F2841D14A791AB1D3
:1028D00023681B789A423BD1097982291BD00229AF
:1028E0000CD080292AD081290FD0012930D17F280E
:1028F00001D004282CD12046052125E07F2801D0D5
:10290000052825D1204604211EE0D4F8E41191B118
:10291000204688470FE02046FFF722FED4F8E81152
:10292000054609B1204688472068FF2101702046EE
:10293000294601F08BFB2046002105E000F0FE0057
:10294000042805D120467F21BDE8B04001F01EBC1F
:10295000B0BD00002DE9FF470446088800F07F0560
:102960008878012819D120680078854266D14FF413
:10297000807094F83013ADF8060005F5E060ADF80E
:10298000040094F8CC0100298DF808004ED040F0E6
:1029900080008DF80800002049E0D4F890226019EA
:1029A000097900F50177127801F07F0680F894220A
:1029B00090F80402B04206D0D4F82C3320462946C1
:1029C000324698473E702EB9D4F82823204629462F
:1029D00090473E780F2E31D0DFF864A04FF000080A
:1029E0004FF47A790027D4F8EC010078874225D299
:1029F000D4F8F00150F82760C6F30740A84213D17D
:102A0000D4F8F40130F91700FDF7C4FCB0B2394630
:102A10005246CDF8008000FB09F32046FFF7F2F89C
:102A2000D4F8F41121F817000137DCE7012084F80D
:102A30003003D4F8340301A9FFF71CFDBDE8FF877C
:102A4000DD0200082DE9F04F8DB08346887801281B
:102A500029D0002840F0F880DBF814008488002C8E
:102A600000F0F280DBF8182007914FF0000C079976
:102A70009388A6B202279E4200F2E68007F0070282
:102A8000042A50D0022AF6D1DBF80420042752F899
:102A900036209269D2F800E00A889645EBD00134DE
:102AA0000CF1010CE5E7DBF814000089002800F0C8
:102AB000CB80DBF818201489002283B25FFA82F8F9
:102AC0000127A34200F2C08007F00706052E00F0A0
:102AD0008E80042E0DD0012EF3D1DBF80460042784
:102AE00056F83360B669D6F800C00E88B445E8D011
:102AF00016E0DBF8046056F83360B66A3678FC2ED0
:102B000003D00527FD2EDCD0A3E0DBF8086008EB3E
:102B1000C80C16F81C70FF074FF00507D1D0BDE0B8
:102B200001300132C9E7C388DBF804005FFA8CF298
:102B3000DDF81CC00026002500EBC30050F8320071
:102B40008468CDE904322078864258D24FF00008DC
:102B5000CDE90888DBF8040000EBC30050F8320030
:102B600000EB0610D0F818A0BAF1000F3BD09AF88D
:102B70000070AFB3E8B29CF8031007EB0009B9EBA3
:102B8000C10F2DD808A94FF000080CEBD00005F0BC
:102B9000070200230695CDE90018011D3846CDF83F
:102BA0000880FDF7AEFB781E012101EBE0000C90E0
:102BB000DAF800000CAACDE90028029108AB010C5C
:102BC000C0F307225846FFF735FB20B1DDE9043298
:102BD000DDE9065C07E0DDE90432DDF81CC04D46A6
:102BE00001364FF00108B8F1000FACD105E008AA9A
:102BF00058464146FFF791FB08B3FF2525E0DBF877
:102C00000C0008B3DBF80410002551F83310896D6F
:102C10000E88D6B130F912001746FDF7BBFBDBF882
:102C200010204FF47A703946009506FB00F35846A1
:102C3000FEF7E8FFDBF80C1021F8170005E0DBF8E1
:102C4000340308A9FFF716FC002528460DB0BDE89F
:102C5000F08FA6F1FE000228CFD2DBF8080008EBC7
:102C6000C80500EB4500FEF770FDDBF8081001EB2E
:102C700045014880B1F90400FDF78CFBDBF8081032
:102C800011F8152002F0FE0201F8152001EB4501B4
:102C9000888058464146FEF799FED5E706EB4C0082
:102CA000811DDBF83403CDE72DE9F04F87B0804676
:102CB000002089468DF81B00D8E905211388BBB197
:102CC0000D8800209EB2AE4212D8D8F8044004EB22
:102CD000C6073F79022FC0F09C8454F83640B9F8FB
:102CE0000060A4692468B4421FD001330130E9E7D1
:102CF0005288002A00F08D844988002093B28B42CC
:102D000000F28784D8F8044004EBC3052D79042D24
:102D1000C0F07F8454F83330B9F800509C6A2468BE
:102D2000AC4207D001320130E8E7012600254FF020
:102D3000010A04E0996B4FF0020A00260D7899F819
:102D4000031008294DD1C4B20DF11B034046524671
:102D50002146FFF718FC00284CD099F804200721E1
:102D6000B1EB521F67D05109DFE811F007006C008A
:102D70008700CB00580022014601002E00F073812D
:102D8000002840F03E84FEF72AFD40F03A84FEF72A
:102D9000D6FD15D0FEF7ADFD9DF81B1008F12805F6
:102DA0005426F24B01FB0652FEF799FDF04A0090C3
:102DB000FEF787FD9DF81B1001FB0652FEF724FD70
:102DC000FEF727FD058EC2F30010984240F0F5840F
:102DD000FEF7D9FC002800F005864FF0006000F0F7
:102DE000EDBC4FF000610022CDE90021C1B24046A8
:102DF00000F00BBCBAF1020F07D0BAF1010FACD151
:102E0000FEF722FD042AA8D103E0FEF71DFD052AE6
:102E1000A3D199F80420802A40F02181002E00F0EF
:102E20000781002840F0A3879DF81B10404600F062
:102E3000E3FF00F09CBFCF49002800F0D58201F1EC
:102E40000110DFE3002E00F03E8199F8056099F84B
:102E5000065099F807B046EA052730B10DF11B027C
:102E6000FEF783FC002800F0F583C348CDF800B0DE
:102E70000190FEF7F9FC3B46C9E3002E00F07E818D
:102E8000FEF777FC00F0B1800DF11B02FEF76DFC40
:102E9000002840F0AA8003209DF81B1022465B46C4
:102EA000CDE90070FEF7DDFC9DF81B104046FFF7F2
:102EB000D8FC002840F09A809DF81B10542001FB9C
:102EC0000082506B002800F00986926BA0EB02098B
:102ED000B9F1050FC0F0048641208DF81670FEF799
:102EE000E0FC8DF817908DF813004FEA19608DF80B
:102EF0001A004FEA19408DF819004FEA192000F026
:102F00002EBF002E00F07781002840F07A83FEF774
:102F1000BFFC40F07683FEF712FD16D0FEF7E9FC09
:102F20009DF81B1008F128055426904B01FB065212
:102F3000FEF7D5FCDFF87C2E0090FEF7C2FC9DF872
:102F40001B1001FB0652FEF75FFC5420C2F3001277
:102F500001FB008393F82B0093F83260B3F83090B4
:102F6000904240F031845A6B002A00F04D85542382
:102F700001FB03839B6BD71A082FC0F04685000125
:102F800007228DF813000DF11300431CFEF7DDFC42
:102F9000002840F04B859DF81B10FEF7A3FB90F82E
:102FA0002B10B1FA81F1490980F82B1000F0D9BE3D
:102FB00002F0030B002E00F06A81BBF1010F00F05C
:102FC0007D82BBF1000F40F08982FEF7D2FB0CD06E
:102FD00099F90800B0F1FF3F40F33D840DF11B0269
:102FE000FEF7C3FB002800F055846348009701906A
:102FF000FEF73AFC5B460AE3002E00F0AC810028A5
:1030000000F0FD81D00740F0FC8299F805B099F8F6
:10301000066099F807700DF11B02FEF7A6FB4BEA5C
:103020000623002800F057835348CDE900704FE392
:10303000002840F09C869DF81B00FEF7BDFBD9F8E8
:10304000084000FB0760FEF7A6FB9DF81B1001FB84
:103050000761A1F84C004C60802000F073BD002E89
:1030600000F07E81CDE1002840F0CB82FEF710FC1D
:1030700040F0C782FEF763FC15D0FEF73AFC9DF8DE
:103080001B10FEF799FB394B01FB0762FEF727FC8B
:10309000DFF8202D0090FEF714FC9DF81B1001FBBB
:1030A0000762FEF7B1FBFEF7B4FB078EC2F3001018
:1030B000984240F08B83FEF766FB002800F0BE8448
:1030C0004FF0006083E3002840F09B82FEF787FB0F
:1030D00040F09782B0F874304FF6FF70834216D0FC
:1030E00018B2FDF757F99DF81B10FEF765FB1F4B53
:1030F00001FB0762FEF7F3FBDFF8B82C0090FEF748
:10310000E0FB9DF81B1001FB0762FEF77DFB5423DB
:10311000C2F3001201FB03873E4616F82B3F96F8D8
:1031200007B0B6F80590934240F054837A6B002ABA
:1031300000F09983542701FB0787BF6BD71B00F072
:103140009283B3FA83F04009082F3070C0F06B858A
:10315000000107228DF813000DF11300431CFEF748
:10316000F4FB002840F071858DE000BFC0C62D0043
:103170001D1B00080000030521000008002840F086
:103180004082FEF785FB40F03C82FEF7D8FB15D06D
:10319000FEF7AFFB9DF81B10FEF70EFBCE4B01FBBD
:1031A0000762FEF79CFBDFF80C2C0090FEF789FB12
:1031B0009DF81B1001FB0762FEF726FBFEF792FA53
:1031C00090F83260B0F830B0900700F10783D00774
:1031D00008D0D9F80800202800F20D83542201FB02
:1031E000028148636020FEF7B4FA082800F03683B5
:1031F0000A540130F9E7002840F00382FEF78DFB06
:10320000022A40F0FE81B0F874204FF6FF7082422F
:1032100016D010B2FDF7BEF89DF81B10FEF7CCFAE1
:10322000AD4B01FB0762FEF75AFBDFF8882B0090DD
:10323000FEF747FB9DF81B1001FB0762A2F84C004C
:10324000542601FB0682536B002B00F08982976B9A
:10325000DF1B00F08582542092F83260B2F8309083
:1032600001FB0080082F90F82B00C0F0A58300011F
:1032700007228DF813000DF11300431CFEF765FBC8
:10328000002840F0D3834FF0020A00F06ABDBBF182
:10329000000F07D0BBF1010F00F04484BBF1020F17
:1032A00040F0AF81002840F0AC81FEF736FB042AE5
:1032B00040F0A781B0F8742090F83230078E4FF6B6
:1032C000FF708242039317D010B2FDF763F89DF8A8
:1032D0001B1008F1280554267F4B01FB0652FEF710
:1032E000FEFADFF8D02A0090FEF7EBFA9DF81B10EB
:1032F00001FB0652A2F84C00BBF1000F00F02D8339
:1033000099F90600B0F1FF3F40F35483542201FBCA
:10331000028585F85D006B6B99F8052002F07F024D
:103320001BB1AE6BB34240F0168495F86850AA42C8
:1033300040F011845420002201FB0080C12190F84C
:10334000690041EA8000FEF73BFA082800F0098591
:103350000A540130F9E7002840F053819DF81B1012
:1033600054264FF6FF7201FB0680B0F874009042BD
:1033700015D0FEF7BEFA9DF81B1008F12807564B32
:1033800001FB0672FEF7ABFADFF8282A0090FEF781
:1033900098FA9DF81B1001FB0672A2F84C0001FB85
:1033A000068010F86A2F022A00F02781012A00F017
:1033B0003581002A40F0DB8499F80420D20740F0E0
:1033C000D68401220270FEF78DF9FEF7E8F944BFBA
:1033D000D9F808100166A320FEF7BBF9082800F011
:1033E000C0840A540130F9E79DF81B20542001F1F4
:1033F000011102FB0080038E90F8320066E19DF817
:103400001B10FEF76FF990F86A00022800F0BB80ED
:10341000012840F0AC84FEF7D9F915D0FEF769FA1F
:103420009DF81B1008F128062B4B01FB0562FEF7E7
:1034300056FADFF880290090FEF743FA9DF81B103A
:1034400001FB0562FEF7E0F901FB058002F07F0653
:1034500052B210F8683F5D1CB2F1FF3F40F3158196
:10346000B54205D10670FEF7E9F9002840F0ED807D
:103470000025102E40F0CE80A220FEF79DF90DF120
:10348000130301212246CDF816508DF81A508DF8FD
:10349000130010208DF815009DF81B0000FB07603D
:1034A00090F840008DF81400404600F05FFD9DF854
:1034B0001B0000FB076080F84050ABE0002840F0A4
:1034C000A0809DF81B10FEF70DF990F82A00052842
:1034D0003FF4ACAC95E000BFC0C62D00002840F022
:1034E0009080FEF71AFA052A40F08B80B0F874003D
:1034F0004FF6FF72904216D0FEF7FBF99DF81B10B5
:1035000008F128055426DF4B01FB0652FEF7E7F9C8
:10351000DFF8A0280090FEF7D4F99DF81B1001FBFE
:103520000652A2F84C00FEF7DDF8BBF1020F90F84E
:103530003270068E40F0EC8299F8062080F85D200B
:10354000406B99F8052002F07F0230B1542301FB53
:1035500003839B6B984240F02583542301FB038334
:1035600093F86850AA4240F01D8393F86900C12186
:10357000002241EA8000FEF723F9082800F0F183D9
:103580000A540130F9E7D0073BD0FEF71FF915D0F8
:10359000FEF7AFF99DF81B1008F12806B94B01FBA7
:1035A0000562FEF79CF9DFF80C280090FEF789F918
:1035B0009DF81B1001FB0562FEF726F901FB058053
:1035C00000F16C03072020EA92024046FEF7FCFA65
:1035D0009DF81B10D8BB542001FB0082106E18B15F
:1035E000926B904240F03483A120FEF7B2F8082895
:1035F00000F0C8810A540130F9E799F80400C207C5
:103600004DD1A1480021FEF733F952460023FEF7C1
:103610005AFFFF25284607B0BDE8F08F542299F9DC
:10362000047001FB028207F07F0612F8683F5D1C00
:10363000B7F1FF3F40F3E480B54240F09880167048
:10364000FEF7FCF8002800F092809DF81B10FEF7B2
:1036500049F836E002209DF81B1022463B46CDE992
:1036600000B0FEF7FEF899F80400810762D4C007A5
:1036700000F05D81D9F8080020286DD89DF81B2046
:10368000542102FB0181486351E1B54240F0C880FA
:103690000670FEF727F8022180F86A10B7E054267A
:1036A00001FB068202F16C03072222EA90024046E7
:1036B000FEF78AFA9DF81B10002800F0178101FB25
:1036C0000680038E90F832004FF00061CDE90001D2
:1036D000FEF7CAF89BE704209DF81B102246CDE9AF
:1036E0000070FEF7BEF89DF81B1054200DF1130377
:1036F000224601FB0080012180F86A10FEF74FF896
:1037000044BFD9F8081001668DF816708DF8156061
:103710008DF814B01020002551468DF81700A02018
:103720008DF81A50ADF818508DF81300404600F08F
:103730001DFC6FE79DF81B105422C0F3810001FBB4
:103740000283C0F1040240465A6309F10803FEF700
:103750003BFA002800F0DE804FF00060FFF786BBE8
:10376000FEF7C7F89DF81B1001FB068182E00025DB
:10377000102E7FF44FAFA220FEF71EF80DF11303B9
:1037800002212246CDF816508DF81A508DF81300FC
:1037900010208DF815009DF81B0000FB076090F8C5
:1037A00040008DF81400404600F0E0FB9DF81B003F
:1037B00000FB076080F84050D9E23448CDE9006052
:1037C000FEF752F82B4622E7304831E12F480096A9
:1037D000FFF74EBB2D48CDF800B02AE1C2F38100BF
:1037E00009F10803C0F1040740463A46FEF7ECF938
:1037F000002800F044814FF000600096FFF7F7BB0F
:10380000B5420DD1167002220270FDF76BFFD9F898
:103810000410D9F808203346C0F86F20C0F86B10A8
:103820000025102051462246CDF816508DF815007F
:10383000A2208DF814300DF113038DF813004046CB
:103840008DF81A5000F092FB9DF81B10FDF74AFF0F
:1038500080F86850DEE60E48FFF7C8BB0DF1130391
:103860004046022181E2FEF744F89DF81B205421D6
:1038700002FB0181A1F87400012081F82A008A6FFF
:1038800062E100BFC0C62D00210000080000030552
:103890000200040505209DF81B1022465B46CDE979
:1038A0000070FDF7DEFF9DF81B10542099F80420EE
:1038B00001FB0080C2F3800280F85C2099F80820A8
:1038C00080F85D204046FEF7CCFF00287FF48EABE9
:1038D0009DF81B10FDF706FF406B002800F02A82C0
:1038E000542201FB0282926B801A24E201FB0680C3
:1038F000006E30B1542201FB02818A6B904240F08D
:10390000B081A120FDF725FF082800F005810A54A9
:103910000130F9E79DF81B104046FEF73DF90028FD
:103920007FF4A4AA9DF81B10404600F065FA6020C1
:10393000002100228DF816B0FDF7B3FF8DF81300BB
:103940000DF113000430042A02D081540132FAE749
:103950000DF113034046012107E299F90800B0F187
:10396000FF3F27DD5420029701FB008299F80400F5
:10397000C0F3800082F85C0099F8080082F85D00CE
:10398000926B74E10DF1130340460121FDF711FF25
:103990009DF81B104046FEF7FFF89DF81B1000280D
:1039A0003FF444AA542201FB028101220B8E91F8BC
:1039B0003210ACE1DE48DAE00E22A2EB470242EA26
:1039C00000103A4601308DF813000DF11300FDF799
:1039D0006DFF58BB0020062F00F2C381791CE8550B
:1039E0000F46F8E79DF81B105420002201FB0080D1
:1039F000202190F82B0041EA0010FDF7E1FE082895
:103A00004ED00A540130FAE700270E220DF11305BB
:103A1000A2EB47026B1C42EA00103A4601308DF8D7
:103A20001300FDF792FF002800F0A5804FF0006022
:103A300000960190FDF718FF4B46E8E59DF81B0046
:103A4000542600FB068292F82B10B1FA81F35B0931
:103A500082F82B3099F80420D20740F0FF806020D4
:103A6000002908BF70208DF813000DF1130101200B
:103A70000022082800F075810A540130F9E79DF80A
:103A80001B0008F12804542600FB0640FDF783FEC6
:103A90009DF81B1001FB0641A1F84C00CF6050E0DF
:103AA0000DF1130340465146FDF783FE9DF81B10B0
:103AB000FDF718FE90F82B20B2FA82F2520980F836
:103AC0002B2099F80400C00700F051814046FEF712
:103AD00063F800287FF472AEFFF7A6B94FF0000933
:103AE00010208DF815500DF113054A468DF816700B
:103AF0008DF81460A0EB89002B1D40F043008DF879
:103B00001300FDF722FFE8B34FF00060FFF76EBA35
:103B1000826BB946039657E00DF11303404602212C
:103B2000FDF747FE9DF81B0008F12804542600FB12
:103B30000640FDF730FE9DF81B1001FB0641A1F881
:103B40004C00012088700A6D002A00F01081404668
:103B5000294690470BE15425C2EBC20201FB0585C3
:103B60006E6E32449A42AA6340F280809048039974
:103B70000091FFF77DB9781C002107280AD8295445
:103B80000130FAE709F104000021072802D829547E
:103B90000130FAE70DF1130340465146FDF709FEE7
:103BA000FFF742B95423C2EBC202B946039601FBA8
:103BB00003835D6E2A4482429A6305D97C480021C2
:103BC0000122FDF755FE21E54FF0540B0DF1130ACC
:103BD000012601FB0B800AF101074266C9B2F3B26C
:103BE00001FB0B8090F85D20934200F2C080426B95
:103BF00080F86860002A68D0806B151A082D65D39C
:103C0000404607223B468DF81360FEF78DFD0028E5
:103C100065D1404601212246534600F0A7F99DF8A0
:103C20001B100136DAE70E203A46A0EB4700002BC6
:103C300008BF40F0100001308DF813000DF11300A3
:103C4000FDF734FE002800F094804FF00060C2E5DC
:103C5000FDF748FD038E90F8320005E008F12804D6
:103C600065E70B8E91F8320051492FE502975427F2
:103C70000DF1130A012601FB07830AF1010B5A66B5
:103C8000C0B2F2B2824272D8C9B201FB0780426B65
:103C900080F8686062B3806B151A082D29D34046FE
:103CA00007225B468DF81360FEF73EFD50BB404691
:103CB00002212246534600F059F99DF81B100136A7
:103CC00001FB078090F85D00DAE7002546F08000F0
:103CD0002A463B468DF81300FDF737FED0B14FF072
:103CE0000060039B21460122CDE9009040468EE40E
:103CF000002546F080002A465B468DF81300FDF74C
:103D000024FEE8B303994FF00060029B0222FDF706
:103D1000AFFD7CE4681C0021072803D80AF80010D6
:103D20000130F9E70DF113034046012134E000BFF3
:103D300002000405002054228DF817008DF816703B
:103D4000FDF7AFFD01FB02810866C2218DF813105B
:103D5000010E8DF81A10010C000A8DF819108DF85B
:103D600018000DF1130340465146FDF722FD0025D2
:103D700050E40020062FF4D8791CE8550F46F9E7E7
:103D8000681C0021072803D80AF800100130F9E761
:103D90000DF1130340460221FDF70BFD9DF81B10AA
:103DA000FDF7A0FCC5F1070180F86910DFE700BF4F
:103DB000210000081D1B0008B0B5D0F820130446F0
:103DC000884794F8D20150B120460121FEF799F9B5
:103DD000D4F824130546204688472846B0BD002065
:103DE000B0BDB0B504460025E9B2042988BFB0BD16
:103DF000FDF743FD0135F7E77CB5002600220023DF
:103E00000C460546CDE90066FEF736FC542000213D
:103E100004FB00503C30202902D046540131FAE71F
:103E20005420002104FB0050C16280F829107CBDA1
:103E30002DE9FF47054690F8D201002879D00C46BD
:103E400001EBC100A96811F81000C00771D16969C0
:103E500068680026098921448FB250F837008069CC
:103E60000068002866D40DF1040828462146039610
:103E7000CDE901664246FEF750FA00285AD1D5F83E
:103E800008A004EBC409BDF804100AEB4906F08849
:103E900088420DD1707A9DF80710884208D106F14A
:103EA0000A0008F104010822FCF760F9002840D05C
:103EB000686850F83700816B806D0788B1F8008022
:103EC0009FB1B6F90200FCF765FA00201B4A2146B3
:103ED00000904FF47A7007FB00F32846FDF792FE3E
:103EE000D5F808A00AEB49014880B8F1000F19D0B5
:103EF0000AEB4900B0F90400FCF74CFA0020104A24
:103F000021460090642008FB00F32846FDF77AFE66
:103F1000A96811F8192042F0010201F8192001EBFB
:103F20004901888001AA2846214600F00BF80126A5
:103F300000E00026304604B0BDE8F087CD19000847
:103F4000E7190008B0B5054601EBC1001446A968A1
:103F500001EB400011460C220630FCF7E3F8D5F8DF
:103F600034032146BDE8B040FEF784BABFB590F8EF
:103F7000CC417F2C01D0052C15D1446901290BD1EE
:103F8000218881B111448269128891420BD842681C
:103F900052F83110896A0CE0618821B111448269BC
:103FA0005288914201D9FF2018E0426852F831103E
:103FB00089690968ADF804104FF40061ADF8061086
:103FC000002101AA082904D05D5C54180131257133
:103FD000F8E7D0F8340301A9FEF74CFA04B0B0BDFD
:103FE000BCB5069C8DF801301B0A8DF802306B467B
:103FF0008DF8034080248DF80040079C250E8DF835
:1040000004408DF80750250C240A8DF806508DF8D1
:104010000540FFF7ABFFBCBDB0B5044600F006F8A5
:1040200005462046FFF7C8FE2846B0BDF8B500217A
:10403000ADF80610D0F81813D0F834030968ADF8BD
:10404000041001A9FEF716FA04B080BD4AB2012A95
:10405000C0F28B802DE9F04FD0F814E0BEF80020BC
:10406000CAB1D0E9005353F832302C789A6904F57C
:10407000C0671668BE4211BFFF2C01F5C064146012
:104080002C7804F5B0659A6A1368AB4212BFFF2C16
:1040900001F5B0631360BEF804A0D0F818C0BAF1FF
:1040A000000F26D0BCF804904FF0000B0FF2BC08B4
:1040B000BBF1030F1DD81FFA8AF24A4519D8D0E97F
:1040C000005458F82B3054F832202F789269DE19BA
:1040D000156825F06044B44218BFFF2F04D105F0E5
:1040E00060440B44234313600AF1010A0BF1010BF6
:1040F000DEE7BEF80880B8F1000F26D0BCF808E073
:104100004FF000090FF2740CB9F1030F1DD81FFA1C
:1041100088F7774519D8D0E900325CF8296052F861
:1041200037201D78976974193B6823F06042A242DA
:1041300018BFFF2D04D103F0604273181A433A6090
:1041400008F1010809F10109DEE7D0F868230068E9
:104150000378146803F18005AC4212BFFF2B01F114
:10416000800313600170BDE8F04F7047000200004B
:1041700000030000000400000005000080010000B2
:104180008002000080030000800400001CB504468B
:1041900090F8CC0188424BD07F2916D0042924D036
:1041A000052933D0002946D1002084F8CC012548C8
:1041B0000168D0F80300CDF8030000916946FDF7CF
:1041C00095FAD4F8D411204688477F2084F8CC0192
:1041D0001D480168D0F80300CDF80300009169463E
:1041E000FDF784FAD4F8D81120E020B3042084F835
:1041F000CC0112480168D0F80300CDF8030000910B
:104200006946FDF773FAD4F8E0110FE098B1052084
:1042100084F8CC010A480168D0F80300CDF8030007
:1042200000916946FDF762FAD4F8DC112046884710
:1042300094F8CC011CBDFF201CBD00BF57440008F2
:1042400050440008424400084944000870B54FF645
:10425000FF71084A091A0848D2E9003405686E6AF5
:104260006962F31A2344C2E90013BDE87040FDF708
:104270006DB800BF54140020C4170020F8B50168C1
:104280000022D0F8340309788DF808204FF48072AA
:10429000ADF8062001F5E061ADF8041001A9FEF7C4
:1042A000E9F804B080BD0000BCB50446B0F81403C2
:1042B0004FF6FF71884202D0204600F025F8104DDD
:1042C000204641F2050100222B46FDF713FC204653
:1042D00041F2060100222B46FDF70CFCD4F818032E
:1042E000C07840060BD5D4F81C0303683BB1054ADF
:1042F000204600210093FDF785FCA4F81403BCBD03
:1043000051190008B51D000810B541F20501002241
:1043100000230446FDF7EEFB204641F20601002291
:104320000023FDF7E7FBB4F91403FCF733F8A4F816
:10433000140310BDB0B50D464978044690F8CE017F
:1043400021B158B9012084F8CE0107E0012805D138
:10435000002084F8CE012046FFF743FDE97894F869
:10436000D00139B170B9012084F8D0012046FFF79F
:104370009BFF07E0012805D1002084F8D0012046EA
:10438000FFF7C2FF297994F8D10139B170B9012042
:1043900084F8D1012046FEF7B5F907E0012805D1E0
:1043A000002084F8D1012046FEF7B5F9A97894F8E9
:1043B000CF0139B170B9012084F8CF012046FEF752
:1043C00071F807E0012805D1002084F8CF012046CC
:1043D000FEF778F8697994F8D20139B170B9012003
:1043E00084F8D2012046FDF713FB07E0012805D130
:1043F000002084F8D2012046FDF734FB297894F898
:10440000CD0121B168B9012084F8CD01B0BD0128EA
:1044100007D1002084F8CD012046BDE8B040FFF769
:104420002DBFB0BD02E008C8121F08C1002AFAD192
:1044300070477047002001E001C1121F002AFBD124
:1044400070470100000000000000010101010001AF
:104450000001010101010000000000010001000055
:10446000000000000000010203040607080917000D
:104470000500000006000A000E0012000100050001
:10448000000009000D00110015000000A00300202D
:1044900001000010B003002001000110C003002043
:1044A00080001010C00B002001001710D00B00205E
:1044B00005001810200C002003000012500C0020F2
:1044C00007000014C00C002007000114300D00206C
:1044D00007000214A00D002007000314100E002096
:1044E00002000016300E002009000116C00E002048
:1044F00009000216500F002009000316E00F0020EB
:10450000070000185010002007000118C0100020FC
:10451000070002183011002007000318A011002026
:104520000200001AC01100200900011A50120020D8
:104530000900021AE01200200900031A701300207B
:104540000100002068450008000000202814000039
:10455000AC0100088849000828140020B0140000AD
:104560003444000800000000320132104BFFFF0409
:1045700013701414208C44140880134220130B2051
:104580001B0870101A7E041A6E041A7C0413851D11
:10459000024C08297801FF0155720F13E3201B0814
:1045A000F3041AE704131523820813751414208CDE
:1045B000161B20720813E0132420FFFF1AE1240ABF
:1045C000270F0101561AFF011AE5881A8C981A8ED6
:1045D00004018023FFFF1A84881A88041AF1981AAC
:1045E000ED041AE9041AEB0481138D1C8C081723BF
:1045F0001002100119111A74401A80041A7C040B5D
:1046000020DC13D81AEF6023020732041A783441F1
:104610004B02055C2944A9106AC85059305A9020B1
:104620006910DA9810DA9410DA9C10CB2C1510DA95
:104630005810DA8410DAB010DADC10CB081610DA71
:104640003410DA6010DAA090DACC10DAF810DA1050
:1046500070DA1410DA1810DA1C10DA2010DA2410CC
:10466000DA2810DA3010DA3410DA3810DA3C10DADE
:104670004010DA4410DA4810DA4C10DA5010DA54EC
:1046800010DA5C10DA6010DA6410DA6810DA6C1094
:10469000DA7010DA7410DA7810DA7C10DA8010DA56
:1046A0008810DA8C10DA9010DA9410DA9810DA9C0C
:1046B00010DAA010DAA410DAA810DAAC10DAB4100C
:1046C000DAB810DABC10DAC010DAC410DAC810DABE
:1046D000CC10DAD010DAD410DAD810DAE010DAE43C
:1046E00010DAE810DAEC10DAF010DAF410DAF81078
:1046F000DAFC1011CA1610DA0410DA0C10DA1010F5
:10470000DA1410DA1810DA1C10DA2010DA2410DAB1
:104710002810DA2C10DA3010DA3810DA3C10DA40CF
:1047200010DA4410DA4810DA4C10DA5010DA54106B
:10473000DA5810DA5C10DA6410DA6810DA6C10DA21
:104740007010DA7410DA7810DA7C10DA8010DA84FB
:1047500010DA8810CBA41410DAA810DAAC10DAB092
:1047600010DAB410DAB810DABC10DAC010DAC410FB
:10477000DAC810DAD010DAD410DAD810DADC10DAAD
:10478000E010DAE410DAE810DAEC10DAF010DAF41B
:1047900010DAFC1011CA1510DA0410DA08105A0CDD
:1047A000102304062A02B04A131023020532016ABC
:1047B000C9105930CB9C1610DA9010DA94106A9810
:1047C000105950DACA50DAE410DAE8805ACB10698E
:1047D000B06AEC1059205AA7601159C06AA4105948
:1047E00020DAA020DAA220DAA6A0DACC70DAF07003
:1047F000DAAF50DAAC50DAA820DAAA20DAAE70DAF2
:10480000CD70DAF470DAB750DAB450DAB020DAB238
:1048100020DAB670DACE70DAF870DABF50DABC504F
:10482000DAB820DABA20DABE10DACF70DAC020DACD
:10483000D0206AC4205910DAC810DACC10DAD010AF
:10484000DAD410DAD810DADC10DAE090DAD190DAC3
:10485000E430DAE810DAEC10DAF010DAF410DAF812
:1048600010DAFC1011CA1790DAD2906A042059109D
:10487000DA0810DA0C10DA1010DA1410DA1810DA7C
:104880001C105A20105A0290DAD3906AFC1059205A
:104890005B0214101A060C41691059206A246059F1
:1048A00020DA26F0DA2870DAD470DA0450DA0870E8
:1048B000DA2C50DA2970DA2A20DA2E70DAD570DA9A
:1048C0000C70DA1070DA3250DA2F70DA3020DA3405
:1048D00070DAD670DA1470DA1870DA3850DA3570A7
:1048E000DA3620DA3A10DAD770DA1C70DAD8206AB1
:1048F0003C405910DA4010DA4410DA4810DA4C1013
:10490000DA5010DA5410DA58B0DAD990DA5C30DACA
:104910006010DA6410DA6810DA6C10DA7010DA7489
:1049200010DA7890DADA90DA7C30DA8010DA8410F3
:10493000DA8810DA8C10DA9010DA9410DA98905B3A
:10494000D01810111AFF01E10932121D7F0402066E
:10495000016D010808080811328033E8031A06E0E7
:1049600019781132022910299119101A808914D04E
:1049700007FF1A801829131A801C390819052908FD
:08498000220812205324F40068
:04000005080000ED02
:00000001FF
